:4000000000800020110000003D0100003D01000008B5054B1A6803F53F5302331A6000F055FA00F08DF800BFFA46004010B5054C237833B9044B13B10448AFF30080012396
:40004000237010BD2881FF1F0000000044240000084B10B51BB108480849AFF300800848036803B910BD074B002BFBD0BDE81040184700BF00000000442400002C81FF1F78
:400080000881FF1F0000000001440023814204D011F8012D1344DBB2F8E718467047000008B50A4B00201B681968FFF7EDFF084B1B681B78181A00F0FF00984204D0BDE896
:4000C0000840002000F050BF08BD00BF1081FF1F1481FF1F38B562B600F06CFE10B1002000F042FFFFF7DCFF00F0E0FDD8B904460120A5B200F042FF00F0D8FD18B9013455
:40010000652CF5D101E0642D0DD10848012100F057F90748002100F053F9064B00221A70054B40221A7000F063FDFEE7D0FF0300D0FE03000C81FF1FFA460040FEE7000099
:4001400008B51148114AC8B1A2F1100132C9234604391E1BAE4204D051F8046F43F8046BF7E71D4652F8041C5C1B8C4203D0002443F8044BF8E701381032E4E702F024F948
:40018000FFF7A8FFFEE700BF010000000027000008B5114A114B1A60114A136843F4007313600023032B98BF0E4A4FEA830094BF52F823100C490D4A0133302B1150F1D10B
:4001C0000B4B19780B4B19700B4B1A6000F018F80A4B00221A6008BD0004FA050CED00E014ED00E0000000003D0100000080FF1FBC7600400481FF1F08ED00E00081FF1F91
:4002000070B572B6574B01221A704FF6FF12A3F5F0631A8018229A7040F2E7329A801F229A71062283F88022522203F5C0731A704D4B4E4A1B781925DBB2137040F6180283
:400240004B4B00241A8041F2512223F8022C494B4FF4F0701B7803F0010343EA440400F0CFFF013D04F0030417D0032CEFD1424B4FF480721A8007221A70404A0024482112
:400280001470917002221C705C7103F8032C3C4A137843F00303137000E0FEE7394A062303FB0423002118689A88013402F0BDF8082CF3D100210846334B53F8204040330D
:4002C00024F0FF05E4B203EB4102214403EB41030132033302329A4205D012F8034C12F8026C2E55F6E701301028E5D1274A28491378284C43F002031370137C43F0020387
:400300001374A2F58632633A137843F0400313700B7843F010030B701F4B5968186803C4198953F80A0F21805968E83C03C41B891A4923800B78A4F6685443F008030B7081
:40034000174B01F5AA511B780C31DBB203F007001B0908704B70134B442119700FCA07C4238070BD004800400F010049A1460040224200402542004004400040064000405F
:40038000A2430040482400007824000003500140C2430040F05100400025000022430040CF01004976580040004710B500232AB1013A4418A45C2344DBB2F8E7184610BD26
:4003C0000346F0B523F0FF050E46C1B0C0F30740C3F307216C1E05F1FF076A4614F801CFC5EB020EBC420EF804C0F6D1DBB20DF8036000F089FD00F0DDFD41B0F0BD0138EE
:400400000B284FD8DFE800F0060C12181E24302A363C42480902C1F57F3101F5707147E00902C1F57F3101F2C13144E00902C1F57F3101F2C53136E00902C1F57F3101F21A
:40044000C93138E00902C1F57F3101F574712FE00902C1F57F3101F2D13129E00902C1F57F3101F2D6311EE00902C1F57F3101F2D23118E00902C1F57F3101F5757112E099
:400480000902C1F57F3101F5767114E00902C1F57F3101F577710BE00902C1F57F3101F5787108E000210B78487843EA002070470878C0B270470B784A788878000440EA04
:4004C00002201843CB7840EA0360704738B51A4B1A781D4602F0C002802A2BD1174B1C78E4B2012C15D900210520FFF788FF012104460520FFF783FF14F0FF0FC0B204D08C
:4005000000280CBF0024032403E0002814BF0124022400232B7002202146FFF770FF48B1012C07D821460220FFF769FFBDE83840FFF73ABF38BD00BFFA4600400C81FF1FD1
:40054000F8B5044603202146FFF759FF214605460420FFF754FF012C064601D90620F8BD06202146FFF74BFF012840D0032021460135FFF744FF06EB052600252F46013079
:400580000002B04209D210F8013B5A1ED2B2FD2A1D4498BF0127EDB2F3E703202146FFF72EFF144B01309E424FEA00204FEAD00014BFF6084FF40046B04206D200F1904345
:4005C0001B7801301D44EDB2F6E701202146FFF716FF6D42EDB28542C0D1002FBED02002C0F57F3000F2D1300121FFF7E9FE0020F8BD00BFC0FF030080B5ADF5627D00F0F0
:400600005DFB62B60026354637464CA84FF4967101AAFF2300F082FB0028F6D1BDF80420062A40F269829DF83031012B40F064829DF832319DF8334143EA0424E31D93423C
:4006400000F25882B3F5967F00F254824CAB19198B7991F805E0172B0A7940F04D82231D9BB233B10DF22F11C95C013B084480B2F6E7404242EA0E2380B2834240F03E8298
:400680009DF831319DF83481A3F13102142A00F29781DFE812F040008E00B300C70006010B0127013901C70049018A011500950195019501950195019501950195015000B3
:4006C000002D00F01982012C40F01682B8F1010F00F2DF814046FFF733FF0446002840F0D8814FEA0828C8F57F380DF59A7E08F57078B8E80F00AEE80F00B8E80F00AEE824
:400700000F00B8E80F00AEE80F0098E803008EE803005621C1E1002D00F0EE81002C40F0EB81C94B1878FFF70BFFB0FA80F040098DF8340137E1002D00F0DE81032C04D095
:4007400040F223139C4240F0D7819DF836919DF83531032C43EA092905D097A80DF23711E21E01F057FEA8F140033F2B07D809F1806303F500631B011020402209E0B8F188
:40078000030F00F244814FF48070024609EB08231B02914580F0DE80002297A9D45C12F801E0A64540F04B81013294B28442F4D32FE1002D00F0A081012C40F09D81B8F139
:4007C000030F00F29981A04B5B681B68C3F30742904502D1C3F3072303E094BF4FF4807300238DF834311B0A8DF835310024FF238DF836318DF8374104214EE1002D00F0FA
:400800007B81012C40F078814046FFF799FE41468DF834010520FFF7F2FD00248DF8350102213AE1342B12D1002D00F06581032C40F06281A8F140033F2B94BF10264FF452
:40084000907697A80021324601F0EFFD05E0002D00F05281022C40F24F8197AB033C981922460DF2371101F0D5FDA8F1400334443F2BA5B204D800F04FFB4023102203E071
:400880004FF480734FF49072954240F0DA809DF836619DF8352142EA06269E42C0F0E080F5E0002D00F028810026AEE6002D00F02381012C40F020814046FFF741FE002806
:4008C00040F0E780B8F1010F08D8604888F00101FFF776FD5E484146FFF772FD5A4B83F800800FE1002D00F0078106EB0408B8F5967F00F3FF8097AB98194DA9224601F003
:4009000089FD1FFA88F6FDE0002C40F0F580514A04AB92E803004DAA83E8030082E80300264601250821B8E0002D00F0E580032C40F0E2809DF835319DF8369143EA092907
:40094000A8F140033F2B07D8B9F13F0F4FEA091140F22A810A249FE04FEA082409EB0401B9F1FF0F4FEA0121F4D800204FF48072FFF71BFDB8F13F0F82460FD804F11074BE
:400980004C4464010023185D01335044202B5FFA80FAF8D1B8F1030F00F00C81CAF100008DF834010024012177E0274B1878FFF7C7FD10B9284B80221A7000F0D7FA9BE051
:4009C000264AD2F80080B8F1000F64D0002D62D0ADF80A4000214DAC0C2204A88DF80830039401F022FD04A9069402A8C047BDF81410B1F5937F02D3069BA34205D0069B51
:400A000003B911B99DF8104047E00E2444E0092442E0B8F1030F75D8864273D90A18134608F5103809EB08294FEA491902F12001C2EB0900C45C13F8010B844260D00224C6
:400A40002AE00026012555E00C81FF1FD0FF0300D0FE030014250000FA4600404481FF1FB8F13F0F00F28D80DFF87C9106EB082AD9F804301FFA8AFA1A68C2F30F2312F0F7
:400A8000FF0F1CBF01339BB29A453DD20026012560E70C2400E00524002101238DF830310A1D0B0A8DF83331ADF806108DF831418DF8321192B200233AB10DF22F10805CDC
:400AC000013A03449BB292B2F6E75B424DAA9BB253540DF235121B0A53540DF59B7317225A5407314CA889B20DF10602962300F0F4F88AE50324CFE70424CDE70824CBE76D
:400B00008B4295D10024C7E799F80030012B15D9002F36D139464FF4907204A801F085FC99F80010032000290CBFFE21FF2104AA4FF4907300F086F9012722E02A4B1C7830
:400B4000E4B2012C2CD803202146FFF758FC80B2C0F57F730133C4F102029BB2D2B293FBF2F30344013080B282459BB201D39A4516D9B8F1030FCBD1C4F1FF04A642C7D1E1
:400B80000EE031462B4697AA404600F05BF9002814BF0A240024002600F00CFA01257BE7002601250D2477E710481022FFF7FDFB8246F3E6A9F1FE03012B3FF6EFAEB9F12C
:400BC000FF0918BF4FF0010949460520FFF717FCC0EB0A00C4B249460620FFF710FC201A5FFA80FADAE600BF0C81FF1F008000402DE9F0410020FFF7A3FC06460120FFF7D8
:400C00009FFC284C02230746002105202370FFF7F6FB012807D116B92670354604E017B920703D4600E006252378DFF87880022B0ED105200121FFF7E2FB012808D11FB956
:400C400088F800003D4603E016B9354688F8006000F0B0F810B1002000F086F9636800201E6801463246FFF7A0FBA3681B78181A00F0FF00984200D116B9002000F074F905
:400C8000094B1A7802F0C002402A1A4600D01DB100231370FFF7B0FC80221A70BDE8F04100F064B90C81FF1FFA460040024B1878C0F38000704700BF1151004008B562B6B3
:400CC0000020022100F082FB014B01221A7008BD4881FF1F012000F029BCF8B507460E46154603EB83030220394640225C0000F0DBFB022000F0BAFB30B92CB10120013C7C
:400D000000F03CF9A4B2F4E7022000F0AFFB10B12E800020F8BD1020F8BD00002DE9F84303EB83035C00224B17461A78814688461E46A2B1254600F087FB30B92DB10120EA
:400D4000013D00F01BF9ADB2F5E700F07DFBA0B100F080FBFFF7BEFF002333700DE000F079FB50B100F070FB38B1FFF7B3FF04E054B100F003F9013CA4B2012000F076FB31
:400D800001284FF00100F3D100F070FB01280AD14246402A494628BF402200F0DDFB38800020BDE8F88300233B801020BDE8F8834881FF1F38B500F037F900F0D1F908B188
:400DC000042438E000F006FA072804460FD11B4B1A78900703D4012000F0E4F8F7E71A78910704D51B789B0814BF0724002400F0D7F904BB00F018F900F0B2F90028DFD1EB
:400E0000012000F093F9072805D04FF0FF3410E02B789B07F9D40A48022100F017F90228064DF5D12B789A0703D4012000F0BAF8F8E700F0B5F9204638BD00BF22470040C7
:400E40005781FF1F4128F8B505460E4617461C460AD8411F3A298CBF002101213F2804D8B6F5807F29D805E00121812E28BF0121102C22D10FB301BB00F072F9F8B9234606
:400E8000284631463A4600F0FBF80728044611D11B4B1A781F4612F0020F03D1012000F081F8F5E71A78900702D51B789B0808D04FF0FF3400F074F91FE001241DE00424BF
:400EC0001BE0104B28461A7831465B7800F00EF907280446EED13A78094B910703D4012000F060F8F7E71A789207E1D51B789B0814BF4FF0FF340024DCE72046F8BD00BF4A
:400F0000224700405781FF1F3F288CBF10234FF48073FFF797BF000008B500F079F90E4A137843F008031370137C43F0080313740A4BC8221A700A4A137843F01003137023
:400F4000137C43F010031374064B1B789B06FBD5BDE8084000F060B9A043004001470040AC4300400047004001BE7047024A137843F0010313707047F646004010B5044620
:400F8000B4F5004F064B05D9186800F039F9A4F50044F5E758686043BDE8104000F030B91881FF1F024B1B7A584300F029B900BF1881FF1F08B500F02BF900BF00BF00BFF4
:400FC00000BF00BF00BF00BF00BF00BF00BF00BF00BF00BF00BF00BF00BF064A13889BB243F0040313801388BFF36F8FBDE8084000F012B900480040054A00F01F001268E6
:4010000000F1100352F8230042F82310704700BF08ED00E000F01F0000F16040490100F56440C9B20170704708B500F0F1F8064A137843F008031370137C43F008031374DB
:40104000BDE8084000F0E8B8A043004070B50E464B1E451EC418A5420CD0074B1B78DB0703D40120FFF79EFFF7E7044B1B7805F8013FF0E7304670BD2247004020470040D3
:4010800070B5184D2C78A60727D5174CB6262670D5262670022626702D78AD071FD416462070B51AADB29D4203D216F8015B2570F7E7B3F5807F01D0072070BD3F28FBD838
:4010C00000F5103001EB0021490100235A5C0133D2B2202B2270F9D1EEE7042070BD092070BD00BF224700402047004070B50D4D2C78A60712D50C4CB6262670D82626708C
:40110000052626702D78AD070AD42070080AC9B22070217022702370072070BD042070BD092070BD22470040204700400A4A137899070CD5094BB6211970E12119700E213B
:4011400019701278920704D4187007207047042070470920704700BF224700402047004038B500F055F80C4A147874B901250B4915700B682B400AD00B6823F001030B60D6
:4011800000BF00BF00BF556002E0042400E01C4600F042F8204638BD4C81FF1F0400084010B500F035F8094B00215A681970012A08D1074C226842F00102226000BF00BF7D
:4011C00000BF5960BDE8104000F026B84C81FF1F04000840074B1B789B0741BF064BB6221A70E02241BF1A700D2207201A7058BF0420704722470040204700400000000095
:401200000230800803D000BF01380046FCD17047EFF3108072B6704780F31088704700BFF8B5FFF7F5FF384A01251378022743F001031370137C354C43F001031374344B93
:4012400002F5E3521D700B3203F8947C1378064603F07F0313700020FFF7A4FE23782D4A03F0F90323701378284603F0DF03137023782B432370FFF795FE2820FFF792FE0E
:40128000254B38461A7802F07F021A701A7802F0BF021A7023783B432370FFF783FE2378304643F0040323701C4B00241C705C70FFF7B2FF1A491720FFF79EFE17200721CC
:4012C000FFF7A8FE17491520FFF796FE15200721FFF7A0FE14491820FFF78EFE18200721FFF798FE20461149FFF786FE20460721FFF790FE28460E49FFF77EFE2846BDE8A9
:40130000F8400721FFF786BEA5430040944300409D60004012600040F851004084600040231A0000211A000075180000B9190000ED190000184B012210B51A70174B4FF4E1
:4013400000041C604FF080741C601A6002221A60134B00241C70134B01B103221A70124B124A187000231370114A01201370114A1370114A1370114A1370114A1370114B9F
:4013800003221A70802203F8202CFFF739FF0E4B04221A7010BD00BFEC81FF1F00E100E07281FF1F096000406C81FF1F7181FF1F6D81FF1F7081FF1F5C81FF1F6F81FF1F8D
:4013C000E581FF1F286000401260004070B5074C064623780D461BB9FFF722FF0123237030462946BDE87040FFF7A4BF5481FF1F0C4B01221A700C4A002313700B4A13703D
:401400000B4A13700B4A13700B4A13700B4A13700B4A13700B4B03221A70802203F8202C704700BFEC81FF1F7281FF1F7181FF1F6D81FF1F7081FF1F5C81FF1F6F81FF1F40
:40144000E581FF1F28600040014B1878704700BF7181FF1F044B1A7802F0FF001AB118780022C0B21A7070477081FF1F024A0C2303FB0020407870477881FF1F0138C0B2E3
:4014800007289FBF0001074BC0B2C25C9FBF0133C35C02F00F0043EA00209ABF023880B2002070470C600040431EDBB2072BF0B532D81A4C0C2606FB0046F5881B01ADB2CF
:4014C000C5F50075AA424FF00C0505FB004588BFF288ED7884BFC2F5007292B2104EDBB245EA12250F4F9D55D5B201361F449D5549B90C2202FB00400022427042790A4963
:40150000D2B25A54F0BD0E46751AADB29542F0D216F8015B3D70F7E7F0BD00BF7881FF1F0C600040886000400E600040431EDBB2072B0BD8064A0C2101FB00200022427087
:4015400042791B010349DBB2D2B25A54704700BF7881FF1F0E600040F8B5431EDBB2072B06460D46144617D8C1B11B010D4FDBB21F44FFF783FFA04228BF20462A4684B272
:40158000531B9BB2A34203D23B7802F8013BF7E73046FFF7CBFF02E0002400E00C462046F8BD00BF8860004030B51A491A4A10780B8803449BB219480B80194BC1B21C88BD
:4015C000A4B284B1174988420CD059680978C9B200F8011B5968013159601988013989B21980EAE7082113780F4C082B0F4800D041B10F4D2B7883F080032B700F232370AD
:40160000022301E00223237003700A4B1170197030BD00BFE881FF1FE581FF1F006000406081FF1F086000405D81FF1F7281FF1F6E81FF1FE681FF1F074B02221A70074B2B
:4016400080221A70064B0F221A70064A00231370054A0120137070477281FF1F6E81FF1F5D81FF1FE581FF1FE681FF1F10B5154B15491B780A8803F00F03023BDBB21A449A
:4016800092B212480A80124A118889B279B173B1546810F8011B013BC9B221705168DBB2013151601188013989B21180EBE7094A1370094A137883F080031370074B0B2216
:4016C0001A7010BD29600040E881FF1F006000406081FF1FE681FF1F6E81FF1F5D81FF1F064A06231370064A01201370054B80221A70054B00221A70704700BF7281FF1F27
:401700005D81FF1F6E81FF1FE681FF1F054B9A683AB19A68044910709A680988518000229A6070476081FF1FE881FF1F08B5124B1A78D2B21A701B78DBB21A0602D50F4A28
:40174000137008BD0220FFF7E1FF0D4B1B7803F06003202B05D0402B06D043B900F0B8FC04E000F007FE01E000F0F8FD10B9034B03221A7008BD00BF286000405D81FF1F3A
:401780000060004008B5084A084B0120197813880B449BB21380064B00221A70FFF7B6FF044B03221A7008BDE881FF1FE581FF1F7281FF1F5D81FF1F08B50C4B1B78DBB2F4
:4017C000042B07D0062B09D0022B0DD1BDE80840FFF7D8BFBDE80840FFF748BF0320FFF795FF034B03221A7008BD00BF7281FF1F5D81FF1F08B5054B002201201A70FFF75F
:4018000085FF034B03221A7008BD00BF7281FF1F5D81FF1F08B50A4B1A7832B11A78094942F080020A7000221A70074B002201201A70FFF76BFF054B03221A7008BD00BF4F
:401840005C81FF1F086000407281FF1F5D81FF1F074B1B78DBB2042B05D0062B05D0022B05D1FFF7A1BEFFF7C5BFFFF7D3BF70477281FF1F10B51D4C2378DBB2DA0634D5DB
:4018800018060AD503F00F03012B2ED1FFF74EFF174B1B78190609D510BD5A0602D5FFF7D7FF03E09B0620D5FFF786FF23781B061BD4104B104A1B78127813430F4A137053
:4018C0001278934211D10A4A084913782078DBB200065FBF1378DBB20B700B78127858BF03F00F039342EED110BD10BD286000405D81FF1F6E81FF1FE681FF1F2960004025
:40190000054A00231380054A916819B191680B7092685380704700BFE881FF1F6081FF1F10B50F4C23889BB213B9FFF785FE14E00C4B02221A700C4B00221A70FFF7E0FF25
:401940000A4B1A78013B1B7843EA0223228892B29A4288BF2380FFF727FE012010BD00BF6081FF1F7281FF1F6E81FF1F0760004008B50C4B04221A700B4B80221A70FFF7E3
:40198000BFFF0A4B0A491A78013B1B78012043EA02230A8892B29A4288BF0B80054B0B221A7008BD7281FF1F6E81FF1F076000406081FF1F5D81FF1F094B1B78094B1A7B0D
:4019C00002F00302012A1EBFDA7B82F08002DA7301225A73044A137803F0FE03137070470E6000407881FF1F0B600040094B1B78094B1A7E02F00302012A1EBFDA7E82F04F
:401A00008002DA7601225A76044A137803F0FD03137070471E6000407881FF1F0B6000407047FFF7E5BC000008B50B4B18780138C0B200F07DF9094B09491B78DBB200EBA8
:401A4000C3004269CB5C02EBC3035B68054A596A0B781380516008BD7181FF1F046000405E81FF1F6081FF1F08B50D4B18780138C0B200F05DF90B4B0B491B78DBB200EBC2
:401A8000C3004269CB5C02EBC3035B68DB69597813F8022B42EA012204490A804B6008BD7181FF1F046000405E81FF1F6081FF1F10B5194C00232380184B18780138C0B2FA
:401AC00000F036F9164B174A1B781278DBB2D2B200EBC2004169EAB9134A127801EBC20251685A1E022A15D8104A03F10053013B127801EBC30011F83330D2B2934209D345
:401B00000C2353434168CA185068CB5A606023809368A36010BD00BF6081FF1F7181FF1F03600040046000405E81FF1F0260004010B53D4B3D4A1B781178DBB2090634D501
:401B400001321278013A052A6BD8DFE802F01018276A6A03364B1A78212A02D1FFF764FF07E01B78222B5CD1FFF77EFF01E0FFF79FFF304B1B889BB2002B52D00AE0002BE9
:401B80004FD12D4B1B78002B4BD12A4B01221A802A4A5A60BDE81040FFF7C2BE002B40D1244B01221A80264AF3E71278120638D4244A1278D2B20A2A0DD00B2A24D0092A9F
:401BC0002FD1FFF775FF1B4B1B889BB24BB3BDE81040FFF7CDBE23BB174B1B7803F0FF01FBB9134B154A1B78DBB21370164B14781878844201D219700FE0197801290CD9A9
:401C00001278D2B21A7008E05BB90B4B1A78012A07D81B780A4ADBB21370BDE81040FFF75FBD002010BD00BF0460004000600040036000406081FF1F02600040EA81FF1F63
:401C4000EC81FF1F01600040EB81FF1F7FB503466D46134A02F110062C4610685168083203C4B2422546F7D1C3B122221A700D4903225A7011F8012B04A8D2B200EB121054
:401C800010F8100C02F00F02987004A8024412F8102C03F8042F044A9142EBD104B070BD1C250000000100490801004930B51C4B01201C4A0C2101FB002483F872106579F9
:401CC00025B12479240658BF082100E0802119700C2101FB002211891033C1F3072103F8121C11890130C9B203F8111CD188C9B283F86810D188C1F3072183F86910D18819
:401D0000C9B283F86610D288C2F3072283F86720054A9342CDD1054BFF221A7030BD00BF0E6000407881FF1F8E6000400A600040064B074A1B7802EBC30253681A7A8242FD
:401D400086BF03EBC003D868002070476C81FF1F30250000F8B5354B1A78002A65D018780138C0B2FFF7E4FFC368067A03EBC606B3425AD01A782E492E488C5C805C844237
:401D800051D0895C587888424DD12B4909788A4249D19978DD7801F07F00421E274C120111F0800F4FF00C01D2B205F0030501FB004106D00127BD424F700CBF07250D254F
:401DC00006E0012D4FF000074F700CBF052509254D711B4901258D540C2148439D8821180D819D780D71DD7825540020C8700C891448C4F3072484540C890130E4B2845442
:401E0000CC887930E4B28454CC880130C4F307248454CC880338E4B2845401301044CA88C2F3072202700833A2E7F8BD7181FF1F5E81FF1FE481FF1F046000407881FF1F10
:401E40000E6000400C60004008B5064B18780138C0B2FFF76DFF20B143681B7900EBC300406908BD7181FF1FF8B500210C254D434A4C01310023621909296355937053707C
:401E8000D370537113819372F0D118B1444A1370444A1370444B1A78002A7DD018780138C0B2FFF745FF43680121DB7913F0400F3E4B1A7814BF42F0010202F0FE021A70B7
:401EC000027AD200C3689F18BB423CD093F802E00EF07F05A94234D10C2505FB01452E89B3F804C0B6B2664538BFA5F808C02C4E1D78755D5E78AE4223D1DE780C251EF08E
:401F0000800F06F0030605FB014508D04FF0010E764585F801E00CBF07260D2607E0012E4FF0000E85F801E00CBF052609266E710C254D4393F802E0661986F804E0DE7839
:401F400066550833C0E701310929BBD1C3680A32991C1A44083191420AD011F8083C0C2503F07F0305FB034311F80A0C9872F1E7FFF76AFF0E4B0122186000230C2101FB9B
:401F80000241CB80098901320B44092A9BB2F5D1BDE8F840FFF78ABEF8BD00BF7881FF1F5E81FF1FE481FF1F7181FF1F6F81FF1F7481FF1F114B1B7803F07F02511EC9B295
:401FC000072919D80E4B0C2000FB02339A78090142F001029A700022DA705A78C9B242F002025A701B7913F0800F064B14BF8D228922CA54FFF774BB002070470460004095
:402000007881FF1F0E60004010B51A4B1A7802F07F02531EDBB2072B29D817490C2000FB02129178154C01F0FE0191701B010021D170DBB2195D01F07F011955517801F06B
:40204000FD0151701179527811F0800F0C4905D0012A01D1585406E00D2203E0012A0CBF082209225A54BDE81040FFF739BB002010BD00BF046000407881FF1F0C60004007
:402080000E60004010B50D4B1C780D4BE4B218780138C0B2FFF74CFE43681B79A3420BD954B9084A084913780120DBB20B70074B1B78DBB2137010BD002010BD0460004099
:4020C0007181FF1F5E81FF1FE481FF1F0260004038B58D4C002323808C4B1A7812F0800F8B4A127800F08B800A2A00F20B81DFE812F05900090109010901090109010B00BD
:4021000009017B0009017F00824B1A78012A09D1814B1A78814B03EBC2035B685B686360122311E01A78022A13D17D4B1878FFF7FFFD002800F0E680436863606368DA78EC
:4021400063689B7843EA02232380BDE83840FFF7E7BB1B78032B21D1724B0021704AC8B21578854202D812783AB910E0187801310028F8D01A781344F0E7694A6A49127815
:40218000097C914203D16948FFF760FD674B1A78002A00F0B7801A78228019E0BDE8384000F0E8B81B7813F0030313D0022B40F0A98023805E4B0C211B7803F07F025D4B53
:4021C00001FB02339A785C4BD2B21A7000225A706360BAE702222280584A1178564AC9B2117053706260B0E701232380544BEFE7012323804E4B534A1B781344E8E7013AC1
:402200000A2A7FD8DFE802F0367E527E067E7E7E0B7E2200424B4C4A1B78DBB260E0404B1B7803F0FF0453B9454B1A78944265D01C70464B01201870FFF716FE5EE0601E4F
:40224000C0B2FFF775FD0028EED15BE0FFF71AFF002857D0364B01221C783D4BE4B21C703A4B1A70FFF776FD364B3A4A1B5DDBB2135543E01B7803F00303012B32D00CD37C
:40228000022B3FD103F1804303F5C0431B78002B38D1BDE83840FFF7B7BE214B1B78012B30D1264A137803F0FD0319E01B7803F00303012B16D00BD3022B23D103F1804379
:4022C00003F5C0431B78EBB9BDE83840FFF772BE134B1B78012B15D1184A137843F0020313700BE0124B1A7862B90D4A1A4910781B78DBB2CA5C22EA0002CA54BDE83840F8
:40230000FFF7EEB9002038BD6081FF1F0060004001600040036000406C81FF1F3025000002600040EE250000BA2600003382FF1F046000407881FF1F5581FF1F6F81FF1F83
:402340007181FF1F5E81FF1F5C81FF1F7081FF1F6D81FF1FE481FF1F7381FF1F034B00201B781B0644BF024B1B7870470060004001600040104B1B7803F00303012B0CD0B9
:40238000022B0ED10D4B0C211B7803F07F020C4B01FB023308339B7801E0084B1B78DBB200E00023074A1268D35C032B01D1FFF7BFBB0020704700BF006000400460004014
:4023C0007881FF1F7481FF1F0E4B70B51E460E4C0025E41AA410A54204D056F8253098470135F8E700F072F9084B094C1E46E41AA4100025A54204D056F82530984701359D
:40240000F8E770BDD8260000D8260000D8260000E026000010B5431E0A44914204D011F8014B03F8014FF8E710BD03460244934202D003F8011BFAE770470000002800001C
:40244000F300000000000000005100401000205100405000C0510040100000000140001000140140000800400140000A004C014000020050014020000145004003520040D2
:40248000011501400117014001190140011B014003400140024101400242014002430140034701400848014001490140044C0140024D0140015101407E0208100C047C40E2
:4024C000EC10EE0AEE0AEC1033803640CC30A640A780A640A780A640A78008080F40C20C210225403D80AE40AF80C860CE20EE50B5025C01AC08AF40D601B401EC08000A84
:402500000000000000000000C000040000141000100000006970122E002801013031323334353637383941424344454600000000010000003825000001000000BA2600007F
:4025400001000000482500000100000091260000020000006A250000010000007C250000000000006825000003000000010340000300000082034000030000000100000062
:402580008425000000000000B825000000000000AC250000000000000000000001000000C425000001000000A3260000410000005582FF1F9682FF1F41000000F281FF1FD2
:4025C000EE81FF1F240005FF0900A1010900A1010900150025FF7508954091020900150025FF750895408102C0C000000203040309042C0343007900700072006500730054
:4026000073002000530065006D00690063006F006E0064007500630074006F0072002A0343006F006E00660069006700750072006100740069006F006E002000300078005B
:402640003000300030003100220349006E007400650072006600610063006500200030007800300030003000310026034B0069007400500072006F006700200042006F00A0
:402680006F0074006C006F006100640065007200000902290001010280FA09040000020300000309211101000122240007050103400001070582034000011201000200003E
:4026C0000008B40446F1000101048001F8B500BFF8BC08BC9E4670475100000091010000F8B500BFF8BC08BC9E4670472D000000002700000881FF1F2000000078010000E7
:4027000000000000020000003C240000402400000000007D00FA0000400000000090D0030000000000000000000000000000000000000000000000000000000000000000B9
:402740000000000000000000000000000000000000000000000000000000000000000000000000000000000000000000000000000000000000000000000000000000000059
:402780000000000000000000000000000000000000000000000000000000000000000000000000000000000000000000000000000000000000000000000000000000000019
:4027C00000000000000000000000000000000000000000000000000000000000000000000000000000000000000000000000000000000000000000000000000000000000D9
:402800000000000000000000000000000000000000000000000000000000000000000000000000000000000000000000000000000000000000000000000000000000000098
:020000040003F7
:40FFC00000000000000000000000000000000000000000000200010000000000000000000000000000000000000000000000000000000000000000000000000000000000FE
:0200000480007A
:4000000000000000000000000000000000000000000000000000000000000000000000000000000000000000000000000000000000000000000000000000000000000000C0
:400040000000000000000000000000000000000000000000000000000000000000000000000000000000000000000000000000000000000000000000000000000000000080
:400080000000000000000000000000000000000000000000000000000000000000000000000000000000000000000000000000000000000000000000000000000000000040
:4000C0000000000000000000000000000000000000000000000000000000000000000000000000000000000000000000000000000000000000000000000000000000000000
:0200000490006A
:0400000000004007B5
:0200000490105A
:04000000BC90ACAF55
:0200000490303A
:020000007F037C
:0200000490402A
:4000000000000000000000000000000000000000000000000000000000000000000000000000000000000000000000000000000000000000000000000000000000000000C0
:400040000000000000000000000000000000000000000000000000000000000000000000000000000000000000000000000000000000000000000000000000000000000080
:400080000000000000000000000000000000000000000000000000000000000000000000000000000000000000000000000000000000000000000000000000000000000040
:4000C0000000000000000000000000000000000000000000000000000000000000000000000000000000000000000000000000000000000000000000000000000000000000
:0200000490501A
:0C00000000012E12706900012E20EF6C30
:00000001FF