:4000000000800020110000002D0300002D03000008B5044B04481A68026000F01FFD00F087F900BFFA460040BC76004010B5054C237833B9044810B10448AFF3008001210C
:40004000217010BD2881FF1F000000009422000008B5064B1BB106480649AFF300800648016811B1054A02B1904708BD00000000942200002C81FF1F0881FF1F00000000CD
:40008000034B187808B900F0B3BF00F0FFBC00BF4481FF1F002321B101390A5C9B18DBB2F9E718467047000008B50A4B002019680968FFF7EFFF084A13681978081A00F0B0
:4000C000FF028A4204D00020BDE8084000F07CBE08BD00BF0C81FF1F1081FF1F10B5FFF7E3FF00F06BFD00F02BF8FFF7C9FFB8B90446012000F072FEFFF7C2FF20B9013483
:40010000A4B2652CF5D101E0642C11D10B4B402247F230501A7000F087FD43F6982005E041F2883000F080FD40F6C41000F082FD00F02EFD00F0C2FAFEE700BFFA460040BE
:400140002DE9F043DFF8DC91DFF8DC8199F800306F4F43F00E0089F8000098F800106D4E41F00E0288F800203C7885B044F00E053D703378684D43F00E0030702978674CCF
:4001800041F00E022A70237843F00E00207099F8001041F0010289F8002098F8003043F0010088F80000397841F001023A70337843F001003070297841F001022A702378F6
:4001C00043F0010020700A2000F008FE99F8001001F010028DF8002098F8003003F010008DF80100397801F010028DF80220337803F010008DF80300297801F010028DF8CF
:400200000420237803F010008DF8050099F8001001F0FE0289F8002098F8003003F0FE0088F80000397801F0FE023A70337803F0FE003070297801F0FE022A70237803F0CC
:40024000FE0020700A2000F0C9FD99F8001001F010028DF8082098F8003003F010008DF80900397801F010028DF80A20337803F010008DF80B00297801F010028DF80C2078
:40028000237803F010008DF80D0099F8001021F00E0242F0020389F8003098F8000020F00E0141F0020288F800203B7823F00E0040F002013970327822F00E0343F002002E
:4002C0003070297821F00E0242F002032B702078002320F00E0141F0020222701A4602A8195C1DF8030008B1012102E00029FBD10221481E00FA03F001331218062BD2B257
:40030000EDD1511E064AC8B2107005B0BDE8F08306500040075000401A5000401B5000404481FF1F0450004005500040FEE7000008B51249124B4A1C1AD053F8106C53F82F
:400340000C0C53F8085C0022AA4200EB020403D0B45884500432F7E753F8040C0022824203D00025A5500432F9E701391033E2E701F054FFFFF7B2FEFEE700BF00000000D8
:400380003026000008B5104A104B1A60986840F400729A600023032B96BF0D4A0D4952F823100D4A42F823100133302BF3D10B490B4B08780B4918700A6000F017F80A48B3
:4003C0000022026008BD00BF0004FA050CED00E0000000002D0300000080FF1FBC7600400481FF1F08ED00E00081FF1FF8B572B60024544B062202FB043500212868AA88E9
:40040000013401F03AFF072CF3D1002319464E4A9858443202EB4104C6B220F0FF070022D5B2AE4209D004EB420C14F812509CF801E0013205F807E0F2E70433C0B2442B8C
:400440000144E4D1414E347844F002023270357C3F4C45F0020030743E48017841F04006067022783C4E42F010052570726834683A490C604A60314651F8085F384C4A68FE
:4004800025606260324652F8125F098925632181516812896163314651F81C5F22874A68098944F8A05C44F89C2C24F8981C56F8264F2C4D2C4A76682C606E6011782B4CD0
:4004C00041F0080515702A4A012603211B25267011809570274A06261670A2F580755221254E29703178254A07251170244900220A800D70234D48262A70AE700A704A71BA
:40050000214A02211170214A0235117841F001011170812222701E4C1E49227802F0070412090C704A701C491C4A0B701C49034653F8040B8B4242F8040BF9D11B8813807B
:40054000F8BD00BF98220000C422000003500140C2430040A04300401624000002510040C051004032510040224300400048004080400040004300400F010049A14600405A
:40058000044000400640004001400040A2430040CF0100496E58004076580040B0430040AC43004000470000431E10B50446062B0BD8DFE803F02406260F11080400174B99
:4005C00020E0174809E0174807E0002000F0FCFB002002E0144800E014484278037842EA0320022C04D0032C07D0012C15D104E0010241EA102080B210BD00BA10BD0C4B0E
:4006000000E00C4BD87899785A781B7840EA036040EA012141EA0240E3E710BDD8FF0300C5FF0300D4FF0300D2FF0300D6FF0300C1FF0300C9FF030070B50220FFF7B4FF3F
:4006400006460320FFF7B0FF711C00EB01260220FFF7AAFF0024013001022546B14209D211F8010B421ED3B20419FD2B98BF0125E4B2F3E70220FFF797FF0F49421C1302D0
:40068000DB088E4201D0F60801E04FF40046B34206D203F19041087801330219D4B2F6E7054864420278E4B2944201D0062070BD002DFBD0002070BDC0FF03002DE9F0433D
:4006C000ADF2A44D00F0FAFA10B1002000F07CFB02A800F007FB10B1002000F075FBB6480368196800230A4622B112F8014DE318DBB2F9E742681078C31A03F0FF028242AA
:4007000000D111B9002000F05FFBFFF795FFAB490B7803F0C002402A0B4601D000283ED000271F7000F0BAF962B6B946002692A84FF4967101AAFF2300F0DEF90028F6D19F
:40074000BDF80420062A40F283819DF84842012C40F07E819DF84A129DF84B5292AB41EA052505F1070E5B1996455C79197900F26D819A79172A40F06B812B1D9BB233B180
:400780000DF24722D25C013B801880B2F6E7404241EA042481B28C4240F05C8108E08020087000F013FB29B00DF5806DBDE8F0839DF849229DF84C82A2F131030A2B00F2AE
:4007C0001781DFE813F00B001A00150133008D0015019100A2003300B0000501002F00F03781002D40F03481FFF726FFD0F1010038BF00208DF84C02DBE0002F00F0288137
:40080000012D4FF0000440F0EC80B8F1030F00F2E880FF2303228DF84C428DF84D4225468DF84E328DF84F220424E3E0342A12D1002F00F00D81032D40F00A81A8F140061F
:400840003F2E8CBF4FF490761026DDA80021324601F013FD05E0002F00F0FA80022D40F2F780033DDDAB2A4698190DF24F2101F0FBFCA8F1400072193F2897B203D800F0AD
:4008800097FA102401E04FF49074A74240F0AB809DF84E129DF84D62B8F13F0F46EA012511D8B9F1000F0ED149464FF490724AA801F0E3FC0320FF214AAA4FF4907300F0FD
:4008C00027FA4FF001093B4640462946DDAA00F01FFA0127002800F0898000260A2588E0002F00F0B58021E7002F00F0B1807419B4F5967F00F2AA80DDA988192A4693A99C
:4009000001F0B2FCA6B2002573E0002D40F0A0802B484AAF93AC03C887E8030084E803000127082466E0002F00F09280032D40F08F809DF84E429DF84D12A8F140023F2ADD
:4009400041EA04250AD82D01002310221D4811184C5D013A2344DBB2F8D126E005EB08231C024FF480720023013A105D1918CBB2002AF9D1B8F13F0F17D808F5103405EB97
:4009800004204101545C01321B19202ADBB2F9D1B8F1030F09D1FF2D07D10B4D0B4C2878191A2378CA1A02F0FF035D428DF84C52002501241EE000BF0C81FF1FFA46004097
:4009C00044240000FF7F0040D0FF0300D1FF0300FFF732FE10B920488025057000F0F6F936E0042506E0012700262FE006468AE70525002401218DF849520022251DADF804
:400A000006408DF848128DF84A428DF84B22ADB20DF24720415D6B1E52189DB292B2002DF6D1504281B293AA11550D0A0DF24D2317200DF24E211D550855073492A8A1B287
:400A40000DF10602962300F038F870E60325D0E70425CEE70825CCE7FA46004008B50A4B1A7802F0C00080280CD1002119700120FFF79AFD30B10120FFF796FDBDE8084079
:400A8000FFF790BD08BD00BFFA460040024B1878C0F30010704700BFC151004008B562B60020022100F082FB014B01221A7008BD4581FF1F012000F023BCF8B507460E4622
:400AC00015460A240220394640225C4300F0DAFB022000F0B9FB30B92CB10120013C00F07DF9A4B2F4E7022000F0AEFB10B12E800020F8BD1020F8BD2DE9F0410A245C438D
:400B0000224B804618780F461646A8B1254600F08BFB30B92DB10120013D00F05FF9ADB2F5E700F081FBA8B100F084FBFFF7C2FF164900220A700DE000F07CFB50B100F033
:400B400073FB38B1FFF7B6FF04E054B100F046F9013CA4B2012000F077FB01284FF00100F3D100F071FB01280AD14146402F34BF3A46402200F0D8FB30800020BDE8F08144
:400B8000002333801020BDE8F08100BF4581FF1F024B1A7842F080001870704774650040044B187800F01001CAB212B1024B1B88F6E7704765650040A86A004010B5154B69
:400BC0001A7802F0C00040F00B01197093F820404EF6602144F001020F4C83F8202023780E4A43F0010020700D4B1180A2F880100C4A002147F230501880117000F02AF8CA
:400C0000237843F01001217000F028F8BDE81040FFF7C6BF7465004095650040086A0040486A004085650040014B1880704700BF886A0040014B1880704700BF486A0040CB
:400C40000230800800F0058000BF013800467FF4FCAF7047EFF3108072B6704780F31088704700BFAFF30080012010B500F068F9072809D04FF0FF3417E00E4B187800F0BD
:400C80000201CAB2002AF5D102210B4800F0F4F80228F2D1074C237803F00200C1B219B9012000F0AFF8F5E7002400F087F9204610BD00BF224700405781FF1F08B500F0F8
:400CC000C9F800F05BF958B9FFF7CEFF48B900F0C1F800F053F918B9BDE80840FFF7C4BF042008BD38B5044600F0B4F84CB100F045F9054638B9054B1C6000F05FF9284659
:400D000038BD012038BD042038BD00BF4881FF1FF8B505460E4617461C4600F02FF9F0B922462846394600F0C1F80728044613D11D4B1A7802F00200C1B219B9012000F07E
:400D400061F8F5E71C7804F00202D0B210B11B789B0806D04FF0FF3400F030F922E0042420E0124C284622786378314600F0C4F807280446F0D10C490A7802F00200C3B2D0
:400D80001BB9012000F03EF8F5E70C7804F00202D0B20028DED009788B0814BF4FF0FF340024D9E72046F8BD224700405781FF1F044B1A7842F010001870197C41F01002EE
:400DC0001A747047AC43004001BE7047024B1A7842F0010018707047F646004010B50446B4F5004F064B05D91868FFF729FFA4F50044F5E758686043BDE81040FFF720BF82
:400E00001481FF1F024B197A4843FFF719BF00BF1481FF1F064B1F281B6800D901BE00F01F0000F1100253F8220043F82210704708ED00E0072900D901BE1F2800D901BE82
:400E400000F01F0000F16042490102F56443C8B21870704708B5FFF7FDFE064B1A7842F0080119701A7C42F008011974BDE80840FFF7F4BEA043004070B506460D460024DC
:400E8000E3B2AB420CD207480178CB0703D40120FFF7B8FFF7E7044A137833550134EFE7284670BD224700402047004030B5104B1C7804F00204E4B2ACB10E4CB6252570D3
:400EC000D5252570022525701B782B40DBB263B9207098B2904204D2CC5C064801330470F7E7072030BD042030BD092030BD00BF224700402047004070B50F4D2C7804F01F
:400F00000204E4B2A4B10D4CB6262670D8262670052626702D7805F00205EDB255B92070080AC9B22070217007202270237070BD042070BD092070BD2247004020470040A4
:400F40000C4A137803F00201CBB273B10A4BB6211970E12119700E211970127802F00201CAB222B9187007207047042070470920704700BF224700402047004038B5FFF718
:400F800069FE0C4B197879B901250B4A1D7014682C400AD0146824F00104146000BF00BF00BF5D600C4600E00424FFF757FE204638BD00BF4C81FF1F0400084010B5FFF732
:400FC00049FE094B002259681A70012908D107490C6844F001040C6000BF00BF00BF5A60BDE81040FFF73ABE4C81FF1F04000840024B1878C0F30010704700BF21510040A4
:40100000F8B5FFF727FE384B07461A78012542F001001870197C022641F001041C74334B334C1D7003F8946C13F88D2C02F07F0003F88D0C0020FFF7E5FE21782D4801F0DC
:40104000F9032370027802F0DF010170237828462B432370FFF7D6FE2820FFF7D3FE2648027802F07F010170037803F0BF0202702078304320703046FFF7C4FE21781F4A0A
:4010800041F0040323700024147038465470FFF7E5FD17201A49FFF7BDFE17200721FFF7C9FE15201749FFF7B5FE15200721FFF7C1FE18201449FFF7ADFE18200721FFF760
:4010C000B9FE20461149FFF7A5FE20460721FFF7B1FE28460E49FFF79DFE28460721BDE8F840FFF7A7BE00BFA54300409D6000409443004012600040F851004084600040EF
:40110000FF170000FD1700003D16000095170000C9170000184B012210B51A70174B4FF400041C604FF080741C601A6002221A60134B00241C70134B01B1032212491A70BD
:40114000124B0870124A002012491870124B10700870124A12491870124B10700870802203201870012003F8202CFFF769FD0E480421017010BD00BFEC81FF1F00E100E07D
:401180007281FF1F096000406C81FF1F7181FF1F6D81FF1F7081FF1F5C81FF1F6F81FF1FE581FF1F286000401260004070B5074C064623780D461BB9FFF722FF01202070EA
:4011C00030462946BDE87040FFF7A4BF5481FF1F0C4B01220C491A7000200C4A0C4B08700C49107018700C4A0C4B08700C49107018700C4B087080220320187003F8202C89
:40120000704700BFEC81FF1F7281FF1F7181FF1F6D81FF1F7081FF1F5C81FF1F6F81FF1FE581FF1F28600040014B1878704700BF7181FF1F034B187810B1002218781A70DF
:40124000704700BF7081FF1F024B0C2202FB0030407870477881FF1F0138C3B2072B0CD81901074ACBB2985C511C5B5C00F00F0243EA0220811E88B270470020704700BF81
:401280000C600040431EDBB2072BF0B52FD8184E1C010C27E3B207FB0064E788154DBFB2C7F50077BA421D4403D9E288C2F50074A2B20C2404FB0066F47844EA12260E4CAD
:4012C0001E55D6B201341E5549B9094A0C2101FB0020002141704079084A9854F0BD0024A6B29642F1D20E5D01342E70F8E7F0BD7881FF1F886000400C6000400E600040BD
:40130000431EDBB2072B0AD8054A0C2101FB0020002141701B014079024ADBB2985470477881FF1F0E600040F8B5431E0D46D9B207290746144616D8BDB10A010C4ED3B222
:401340009E19FFF789FFA04228BF204684B2002290B2A04203D23178A9540132F8E73846FFF7CEFF02E0002400E02C462046F8BD886000401B4B1C491A880878821891B25A
:4013800019801A491A4BCAB2188880B278B1194A91420BD05A68107801F8010B5A68501C58601A88501E82B21A80EBE708220E490B78082B00D05AB10F48017881F0800389
:4013C0000E4903700F200E4B08700220187004E00A490B4B022008701870034909480A7002707047E881FF1FE581FF1F006000406081FF1F086000406E81FF1F5D81FF1F2F
:401400007281FF1FE681FF1F074B02221A700749074B80200F2208701A700649064A002008701070012070477281FF1F6E81FF1F5D81FF1FE581FF1FE681FF1F10B5154BCA
:401440001A78154B02F00F00811E1888CAB2111888B212491880124B188880B270B16AB1586811F8014B013A04705868D2B2013058601888013880B21880ECE709490A4BEF
:401480000A701A780B2182F080001870074B197010BD00BF29600040E881FF1F006000406081FF1FE681FF1F6E81FF1F5D81FF1F064A0748062313700370064B0648802198
:4014C0000022197002700120704700BF7281FF1F5D81FF1F6E81FF1FE681FF1F054B9A683AB19968044A08709868118841800020986070476081FF1FE881FF1F08B50A4BD4
:401500001A7832B11978094A41F08000002110701970074B002018700120FFF7DFFF054903220A7008BD00BF5C81FF1F086000407281FF1F5D81FF1F08B5054B0022012017
:401540001A70FFF7CBFF03490320087008BD00BF7281FF1F5D81FF1F074B1878042805D0062805D0022805D1FFF704BFFFF7E4BFFFF7C4BF704700BF7281FF1F08B5084963
:40158000084B1A880878821891B21980064B002018700120FFF7A2FF044903220A7008BDE581FF1FE881FF1F7281FF1F5D81FF1F08B50B4B1878042807D0062809D00228EF
:4015C0000DD1BDE80840FFF7D9BFBDE80840FFF735BF0320FFF782FF024903220A7008BD7281FF1F5D81FF1F08B5114B1A781A701878020602D50F4B187008BD0220FFF702
:401600006DFF0D490B7803F06002202A05D0402A06D042B900F080FC04E000F0D7FD01E000F0C8FD10B903490320087008BD00BF286000405D81FF1F0060004008B5224B4A
:401640001A78D0B200F01001CBB2002B3BD052B2002A0ADA00F00F01012934D1FFF7C4FF1A4B187800060DD508BD00F04001CBB213B1FFF771FF05E000F02000C2B212B300
:40168000FFF796FF104A117809061CD4104B114A1878117841EA00030F4803700278934211D10A49084B0A78187800F08000C0B220B90A781A70197801F00F02034B1878D5
:4016C0008242EED108BD08BD286000405D81FF1F6E81FF1FE681FF1F29600040054A00231380054A916819B191680B7090684380704700BFE881FF1F6081FF1F08B50C496A
:401700000C4B042280201A700870FFF7E7FF0A4B1A78581E094B0178188841EA022281B2914288BF1A80064B0B221A70012008BD6E81FF1F7281FF1F076000406081FF1FFC
:401740005D81FF1F10B50F4C238898B210B9FFF75BFE14E00C490D4B022200200A701870FFF7BCFF0A49481E0A78037843EA0221228890B2884288BF2180FFF7FBFD0120F5
:4017800010BD00BF6081FF1F7281FF1F6E81FF1F07600040094B0A481B78027B02F00301012903D0C37B83F08002C273012141730448037803F0FE02027070470E60004061
:4017C0007881FF1F0B600040094B0A481B78027E02F00301012903D0C37E83F08002C276012141760448037803F0FD02027070471E6000407881FF1F0B6000407047FFF725
:40180000E7BC000008B50B4B1878411EC8B200F087F9094A0949137800EBC3004269CB5C02EBC3004268064B506A01781980586008BD00BF7181FF1F046000405E81FF1F05
:401840006081FF1F08B50D4B1878411EC8B200F067F90B4A0B49137800EBC3004269CB5C02EBC3004268D369074A597813F8020B40EA01211180536008BD00BF7181FF1FF3
:40188000046000405E81FF1F6081FF1F10B5164C00231648238001784A1ED0B200F040F91349144B1B780A7800EBC2004169D2B9114A013B1078DAB201EBC001022A4968CA
:4018C00011D80E4A01EBC300127811F83310914209D30C235A4341688B1858688A5A996860602280A16010BD6081FF1F7181FF1F04600040036000405E81FF1F0260004091
:4019000010B53A4B3A4A18781178090634D5511C0B785A1E052A67D8DFE802F010182766660334480178212902D1FFF76BFF07E00378222B58D1FFF785FF01E0FFF7A6FFBB
:401940002D490B8898B200284ED00AE000284BD12A4B1878002847D127480122284902804160BDE81040FFF7EDBE00283CD12248012202802349F3E713781A0634D4224AF6
:401980001178092905D02FD30A290DD00B292BD122E0FFF77BFF184B1A8890B2002823D0BDE81040FFF7AABEF0B914480178D9B9441C2378124A1370144B14781878844203
:4019C00001D2197004E01978012901D912781A70BDE81040FFF76CBD30B908480378012B02D80278074BF2E7002010BD0460004000600040036000406081FF1F0260004016
:401A0000EA81FF1FEC81FF1F01600040EB81FF1F7FB5134B02466D4603F11006186859682C4603C40833B3422546F7D1B2B1222003210C4B1070517013F8011B04AC04EBCC
:401A4000111010F8100C01F00F019070601810F8101C054802F8041F8342EDD17FBD00BF4C240000000100490801004930B5012202F10F031801092AC3B23BD01F4903F14B
:401A800080440C2004F5C14500FB021428701C496579591825B12479240658BF082000E08020087017490C245818144904FB02110C890132C4F3072404700C891248E4B2F4
:401AC00018180470CC881148E4B218180470CC880F48C4F3072418180470CC880D48E4B2181804700C48D2B21818CB88C3F307210170BDE70949FF220A7030BD7881FF1F08
:401B00000E6000400C6000400D600040866000408760004084600040856000400A600040084B09491A7801EBC20359680B7A01F10802834203D902EBC00040687047002067
:401B4000704700BF6C81FF1F60240000F8B53D4B1A78002A74D01878411EC8B2FFF7E0FFC368057A08330020A84269D013F8082C3549364C8E5CA45CA6425DD0895C13F897
:401B8000074C8C4258D1324909788A4254D113F8067C07F07F02561E3401E1B213F8056C2C4C17F0800F4FF00C0706F0030607FB024406D001276770BE4214BF0D26072682
:401BC00005E000276770012E14BF092605266671214C01260F190C2454433E701D4E33F8047C3219178113F8067C177113F8057C37550026D6701689184CC6F307260C19FE
:401C000026701689164CF6B20C192670D688154CF6B20C192670D688134CC6F307260C192670D688114CF6B20C192670104C0C19D188C1F3072222700130C0B2083393E76B
:401C4000F8BD00BF7181FF1F5E81FF1FE481FF1F046000407881FF1F0E6000400C6000400D6000408660004087600040846000408560004008B5064B1878411EC8B2FFF79B
:401C80004FFF20B14268137900EBC300406908BD7181FF1FF8B500210C244C43514D013100232A1909292B55937002F108045370D370537113819372EED118B14A484B4A1A
:401CC000037013704A4B1978002900F08A801C78601EC0B2FFF724FF4268D37903F04001CCB2444B1CB11C7844F0010102E01A7802F0FE01047A19700122C3680021083324
:401D0000A14243D013F8065C05F07F06B24239D1344E0C2707FB0266B6F808E033F8047C1FFA8EFCBC4538BF378113F8086C2E4FBE5D13F8077CB74224D113F8056C15F001
:401D4000800F284D4FF00C0706F0030607FB025506D001276F70BE4214BF0D26072605E000276F70012E14BF092605266E710C2555431C4E13F806EC771987F804E013F851
:401D8000057C77550131C9B20833B9E70132092AB3D1C36800220833A2420DD013F8065C0C2605F07F010F4D13F8080C06FB015101328872D2B2EEE7FFF75CFF0E4B0022E7
:401DC0001860012307490C2000FB0310C280018901335218092B92B2F4D1BDE8F840FFF745BEF8BD7881FF1F5E81FF1FE481FF1F7181FF1F6F81FF1F7481FF1F124B1978D5
:401E000001F07F014A1ED0B207281AD80301DAB20E4B0C2000FB0130817841F0010300218370C170437843F0020141700079084B10F0800F01D08D2100E08921D154FFF751
:401E400037BB0020704700BF046000407881FF1F0E60004010B51A4B187800F07F035A1ED2B2072A2AD817490C2000FB03139C78120104F0FE01997000241349DC70D2B206
:401E8000545C04F07F045454597801F0FD01597019795B7811F0800F0C4905D0012B01D1505407E00D2004E0012B01D1082000E009205054BDE81040FFF7FABA002010BDB2
:401EC000046000407881FF1F0C6000400E60004010B50C4B0C481C7801784A1ED0B2FFF71FFE43681879A04209D944B9074B084A19780848117001780120197010BD002040
:401F000010BD00BF046000407181FF1F5E81FF1FE481FF1F0260004038B5804B00221A807F4A8048117811F0800F00F08F8001780A2900F23481DFE811F05D003201320144
:401F40003201320132010B0032017D0032018100754B197801290AD174487549027801EBC2035868122342686C48426012E01878022814D16F4B1878FFF7D2FD002800F0B1
:401F80000E814268654842604168CB784268917841EA03230380BDE83840FFF7D3BB1A78032A23D1644B002262490878904202D80A7842B911E018780028F9D01878511C3E
:401FC0001B18CAB2F0E75B495C4A0878117C814203D15B48FFF71CFD594B1878002800F0DE8019784D4A11805360D4E7BDE8384000F0ECB8117811F0030211D0022A40F06D
:40200000CE8046494F4B0A8018784F4A00F07F030C2000FB032398784C4B0022187006E03E4902234A480B800078484B18705A704B60B0E701221A80464805E0012241483C
:402040001A800278444988185860A4E70378581E0A2800F2A480DFE810F03800A2005100A2000B00A200A200A2000F00A2002600304B3A49187881E02E4D2D78ECB25CB985
:4020800034480278944200F086803549057001200870FFF7FFFD7EE0631ED8B2FFF740FD0028EDD17BE0FFF713FF002877D0254C2C4A24782A4B012114701970FFF746FD2C
:4020C00025482949025D0A5565E0127802F00301012955D009D3022961D1164B187800285DD1BDE83840FFF7B5BE124A1178012955D117490B7803F0FD003FE0107800F08A
:402100000302012A3CD031D3022A48D109490B78002B44D1BDE83840FFF770BE6081FF1F0060004001600040036000406C81FF1F60240000026000401E250000EA2500005E
:402140003382FF1F046000407881FF1F5581FF1F6F81FF1F7181FF1F5E81FF1F5C81FF1F7081FF1F6D81FF1FE481FF1F0D480278012A14D10C490B7843F0020008700AE0DB
:402180000A4802785AB90378094A0648D15C007821EA0001D154BDE83840FFF789B9002038BD00BF026000406F81FF1F046000407381FF1F034B1878010644BF024909780B
:4021C0000020704700600040016000400F4B187800F0030101290CD002290DD10C4A0C2110780C4A00F07F0301FB03200830837803E0074B1B7800E0002307490A68D05CFC
:40220000032801D1FFF77CBB0020704700600040046000407881FF1F7481FF1F38B50E4D0E4B0024E81A8510AC4205D00B4951F8242090470134F7E700F0E0F90849094AD8
:40224000541AA5100024AC4205D0054B53F8240080470134F7E738BD0826000008260000082600001026000010B50023934203D0CC5CC4540133F9E710BD8218034693429D
:4022800002D003F8011BFAE77047000050260000690000000000000010510040100040510040300000000140001000140140000800400140000A004C0140000200500140B3
:4022C000200000000145004006520040016500404014014025150140011701400119014003400140024101400242014002430140034701400348014004490140024C0140EF
:4023000002500140015101407E0204F0141019021C0C64107C40852D100124012E0130014030410449FF4AFF4BFF4DA04F045018528058045A045B045F01604062C064403B
:40234000654066C068C06AC06CC06EC08106900193019D04A506B104B201B301B702B802BE04C020C104C5D2C612C82FC9FFCAFFCBFFCDAFCE0FCF04D018D425D804D90471
:40238000DA04DB04DF01E040E2C0E440E540E6C0E8C0EAC0ECC0EEC009010E8010221A801E801F042450268027202C20350136803D0240104280468047204D014F045420D2
:4023C000550156805C405D015F046708700271018240C218C405CA40CC90CE80D0A3D6D0D820EE0AEE0A33803640CC30A640A780A640A780A640A78008080F40C20CAE4080
:40240000AF80EE505B408340D480E680AC08AF4010011A01000AF000000000000000100000100000000000000000000000000000C000100000100000000000000C0202003E
:40244000020000006970122E001401013031323334353637383941424344454600000000010000006824000001000000EA250000010000007824000001000000C125000068
:40248000020000009A24000001000000AC2400000000000098240000030000000103400003000000820340000300000001000000B424000000000000E824000000000000D8
:4024C000DC240000000000000000000001000000F424000001000000D3250000410000005582FF1F9682FF1F41000000F281FF1FEE81FF1F240005FF0900A1010900A10181
:402500000900150025FF7508954091020900150025FF750895408102C0C000000203040309042C0343007900700072006500730073002000530065006D00690063006F002C
:402540006E0064007500630074006F0072002A0343006F006E00660069006700750072006100740069006F006E002000300078003000300030003100220349006E007400FE
:40258000650072006600610063006500200030007800300030003000310026034B0069007400500072006F006700200042006F006F0074006C006F00610064006500720018
:4025C000000902290001010280FA09040000020300000309211101000122240007050103400001070582034000011201000200000008B4043BF1000101048001F8B500BF7A
:40260000F8BC08BC9E4670475100000085030000F8B500BFF8BC08BC9E4670472D000000302600000881FF1F2000000078010000000000008C220000902200000000E02EFE
:40264000C05D00001800000000366E010000000000000000000000000000000000000000000000000000000000000000000000000000000000000000000000000000000080
:40268000000000000000000000000000000000000000000000000000000000000000000000000000000000000000000000000000000000000000000000000000000000001A
:4026C00000000000000000000000000000000000000000000000000000000000000000000000000000000000000000000000000000000000000000000000000000000000DA
:402700000000000000000000000000000000000000000000000000000000000000000000000000000000000000000000000000000000000000000000000000000000000099
:402740000000000000000000000000000000000000000000000000000000000000000000000000000000000000000000000000000000000000000000000000000000000059
:020000040003F7
:40FFC00000000000000000000000000000000000000003000100010000000000000000000000000000000000000000000000000000000000000000000000000000000000FC
:0200000480007A
:4000000000000000000000000000000000000000000000000000000000000000000000000000000000000000000000000000000000000000000000000000000000000000C0
:400040000000000000000000000000000000000000000000000000000000000000000000000000000000000000000000000000000000000000000000000000000000000080
:400080000000000000000000000000000000000000000000000000000000000000000000000000000000000000000000000000000000000000000000000000000000000040
:4000C0000000000000000000000000000000000000000000000000000000000000000000000000000000000000000000000000000000000000000000000000000000000000
:0200000490006A
:0400000000004007B5
:0200000490105A
:04000000BC90ACAF55
:0200000490303A
:02000000A00559
:0200000490402A
:40000000FFFFFFFFFFFFFFFFFFFF000000000000000000000000000000000000000000000000000000000000000000000000000000000000000000000000000000000000CA
:400040000000000000000000000000000000000000000000000000000000000000000000000000000000000000000000000000000000000000000000000000000000000080
:400080000000000000000000000000000000000000000000000000000000000000000000000000000000000000000000000000000000000000000000000000000000000040
:4000C0000000000000000000000000000000000000000000000000000000000000000000000000000000000000000000000000000000000000000000000000000000000000
:0200000490501A
:0C00000000012E12706900012E20106E0D
:00000001FF