:4000000000800020110000004D1300004D13000080B500AF024A034B1B68136001F0C8F9BC760040FA46004010B5054C237833B9044B13B10448AFF300800123237010BD95
:40004000B881FF1F0000000048760000084B10B51BB108480849AFF300800848036803B910BD074B002BFBD0BDE81040184700BF0000000048760000BC81FF1F0881FF1F65
:400080000000000000000000B0B588B000AF00F023FF00F0A9FF01F077F8994B1B78002B00F0AD869748984906F01AFDF860FB681B78692B04D1954801F026F900F09CBE6A
:4000C000FB681B78442B40F0E68000208E4906F007FDF860FB681B784F2B11D100208A4906F0FEFCF860BB1CF86889491A4606F0C3FC7B88DBB2184605F01CFA00F07CBEEE
:40010000FB681B78492B0AD1492001F00DF905F021FA0346184601F007F900F06DBEFB681B78412B0DD17B4B01221A70492001F0FBF805F00FFA0346184601F0F5F800F0E4
:400140005BBEFB681B78612B04D1724B00221A7000F052BEFB681B78462B5ED100206A4906F0BEFCF860BB1CF86869491A4606F083FC7B88092B4DD801A252F823F000BF5C
:40018000A9010000B3010000BD010000C7010000D1010000DB010000E5010000F1010000FD010000090200000120012105F0DEF931E00320012105F0D9F92CE00F20012143
:4001C00005F0D4F927E01F20012105F0CFF922E07F20012105F0CAF91DE0FE20012105F0C5F918E040F2FF10012105F0BFF912E04FF47F70012105F0B9F90CE040F608008E
:40020000012105F0B3F906E041F21100012105F0ADF900E000BF00F0EFBDFB681B78442B1BD10020384906F05BFCF860BB1CF86837491A4606F020FC7B88F92B01D9F923FC
:400240007B807B88DBB2184605F0EAFA7B88DBB2184605F0F5FA00F0CFBDFB681B78212B40F0CA850020284906F03AFCF860FB681B78442B00F0C085FB681B78522B00F09B
:40028000BB85FB681B78462B00F0B685FB681B78482B00F0B1BDFB681B78572B40F026820020194906F01CFCF860FB681B78532B1ED10020144906F013FCF860BB1CF868F9
:4002C00013491A4606F0D8FB7B88FB8300200E4906F006FCF860BB1CF8680D491A4606F0CBFBFB8B7A88D1B20B4AD15400F084BDFB681B78502B63D10023BB835BE000BFD2
:400300000594FF1F98A4FF1F4C760000507600006C760000FE8BFF1FF881FF1FBB8BAA4AD35C184606F02AF90446A84B1B78184606F024F903462046194606F077F9034626
:40034000184605F08FFD02460B46104619469CA3D3E9002305F004FF02460B4614461D469B4B1B78184606F009F90346184605F079FD02460B462046294605F015FC024647
:400380000B461046194605F0F3FF03463B613869904906F007FB0346002B01D08D4B3B61BC8B386906F008FB0346DAB28A4B1A55BB8B0133BB83BB8BFF2BAFD900F01CBDCD
:4003C000FB681B78412B63D10020844906F088FBF860BB1CF86882491A4606F04DFB7B88DAB27A4B1A700023BB834CE0BB8B764AD35C184606F0C2F80446744B1B78184661
:4004000006F0BCF803462046194606F00FF90346184605F027FD02460B461046194668A3D3E9002305F09CFE02460B4614461D46674B1B78184606F0A1F80346184605F05B
:4004400011FD02460B462046294605F0ADFB02460B461046194605F08BFF03463B6138695C4906F09FFA0346002B01D0594B3B61BC8B386906F0A0FA0346DAB2564B1A55FA
:40048000BB8B0133BB83BB8BFF2BAFD900F0B4BCFB681B784F2B63D10020504906F020FBF860BB1CF8684E491A4606F0E5FA7B88DAB2474B1A700023BB834CE0BB8B424A59
:4004C000D35C184606F05AF80446404B1B78184606F054F803462046194606F0A7F80346184605F0BFFC02460B461046194634A3D3E9002305F034FE02460B4614461D46A4
:40050000334B1B78184606F039F80346184605F0A9FC02460B462046294605F045FB02460B461046194605F023FF03463B613869284906F037FA0346002B01D0254B3B616D
:40054000BC8B386906F038FA0346DAB2224B1A55BB8B0133BB83BB8BFF2BAFD900F04CBCFB681B78572B10D104F0D8FF034623F00103DBB2184604F0C1FF04F0CFFF0346E4
:40058000184604F0BBFF00F037BCFB681B784E2B28D104F0C3FF034623F00103DBB2184604F0ACFF04F0BAFF034643F00103DBB2184604F0A3FF00F01FBC00BFAFF30080EA
:4005C0000000000000E06F40F881FF1FD481FF1FD581FF1F00007F43FC8AFF1F4C7600006C760000FB681B78462B40F005840020B14906F075FAF860BB1CF868AF491A465E
:4006000006F03AFA7B881B06BB610020AA4906F067FAF860BB1CF868A8491A4606F02CFA7B881B04BA691344BB610020A24906F057FAF860BB1CF868A0491A4606F01CFAFC
:400640007B881B02BA691344BB6100209A4906F047FAF860BB1CF86898491A4606F00CFA7B881A46BB691344BB61B86905F086FF0346184605F0F6FB02460B46104619464E
:4006800087A3D3E9002305F041FC02460B461046194605F06DFE0346BB608948B96806F079F80346184606F087F90346BB61BB694FF6FE72934203D94FF6FF73BB6104E0D1
:4006C000BB690F2B01D80F23BB61BB699BB2013B9BB21846012104F0BBFCBB699BB2013B9BB21846012105F0E3F885E3FB681B78532B40F07E8300206F4906F0F1F9F860E9
:40070000FB681B784F2B0FD14F2000F00DFE802000F00AFE802000F007FE802000F004FE802000F001FE67E3FB681B78542B7CD10020614906F0D4F9F860BB1CF8685F49E1
:400740001A4606F099F97B881B02FB8300205A4906F0C6F9F860BB1CF86858491A4606F08BF97A88FB8B1344FB83564B1B78002B04D1554B1A78554B1A7003E0544B1A7870
:40078000524B1A70514B1B78012B18D1FB8BC3F5FF730133184605F053FB02460B461046194641A3D3E9002305F0B0FB02460B461046194605F0DCFD03467B6117E0FB8BDA
:4007C000C3F5FF730133184605F03AFB02460B461046194636A3D3E9002305F097FB02460B461046194605F0C3FD03467B6178694FF0000106F0C2F80346002B03D04FF007
:4008000000037B6108E07869324906F0C1F80346002B01D02F4B7B61786906F0CDF80346DBB2184604F0A6F8E6E2FB681B78432B52D10020204906F053F9F860BB1CF86840
:400840001E491A4606F018F97B881B02FB830020194906F045F9F860BB1CF86817491A4606F00AF97A88FB8B1344FB83FB8B40F2FE32934203D940F2FF33FB8304E0FB8BCC
:40088000022B01D80223FB83FB8B184604F0AAF9FB8B184604F088F9AEE200BFAFF30080524CFEFF83D7B73FEF38454772790A406631B1F9B836E83F4C7600006C7600007D
:4008C000405409480494FF1FF88AFF1F90A4FF1F8CA4FF1F00007F43FB681B78522B40F0F1800020B74906F0FBF8F860BB1CF868B5491A4606F0C0F87B8803F04003002B3F
:400900002AD17B8803F02003002B12D104F0D2F9034623F00F03DBB2184604F0BBF904F0C9F9034643F00203DBB2184604F0B2F924E004F0BFF9034623F00F03DBB218460B
:4009400004F0A8F904F0B6F9034643F00103DBB2184604F09FF911E004F0ACF9034623F00F03DBB2184604F095F904F0A3F9034643F00803DBB2184604F08CF97B8803F072
:400980001003002B06D1914B00221A70002004F01FF805E08D4B01221A70012004F018F87B8803F00F03002B04DC0020012103F093FE21E27B8803F00F03012B04D10120DA
:4009C000012103F089FE17E27B8803F00F03022B04D10320012103F07FFE0DE27B8803F00F03032B04D10720012103F075FE03E27B8803F00F03042B04D10F20012103F0C5
:400A00006BFEF9E17B8803F00F03052B04D11F20012103F061FEEFE17B8803F00F03062B04D13F20012103F057FEE5E17B8803F00F03072B04D17F20012103F04DFEDBE17C
:400A40007B8803F00F03082B04D1FF20012103F043FED1E17B8803F00F03092B05D140F2FF10012103F038FEC6E17B8803F00F030A2B05D140F2FF30012103F02DFEBBE1AA
:400A80007B8803F00F030B2B05D140F2FF70012103F022FEB0E17B8803F00F030C2B05D140F6FF70012103F017FEA5E17B8803F00F030C2B40F3A08141F6FF70012103F003
:400AC0000BFE99E1FB681B78442B59D100203D4906F006F8F860BB1CF8683B491A4605F0CBFF7B88002B09D104F0E4F8034603F07F03DBB2184604F0CDF87DE17B88012B51
:400B000009D104F0D7F8034663F07F03DBB2184604F0C0F870E17B88022B09D104F0CAF8034623F04003DBB2184604F0B3F863E17B88032B09D104F0BDF8034643F0400372
:400B4000DBB2184604F0A6F856E17B88042B09D104F0B0F8034623F01003DBB2184604F099F849E17B88052B40F0468104F0A2F8034643F01003DBB2184604F08BF83BE14B
:400B8000FB681B78472B12D104F094F8034643F04003DBB2184604F07DF804F08BF8034623F04003DBB2184604F074F824E1FB681B78422B40F0F080442000F0B5FB0023C7
:400BC000BB83E3E04C7600006C7600000494FF1FB34B1B78012B20D1BB8BB24A32F81330184605F02DF902460B4610461946A4A3D3E9002305F0B4FA02460B46A2A1D1E917
:400C0000000104F0CFFF02460B461046194605F08FFB03469BB27B801FE0BB8BA14A32F81330184605F00CF902460B461046194697A3D3E9002305F093FA02460B4696A1E5
:400C4000D1E9000104F0AEFF02460B461046194605F06EFB03469BB27B80934B1B78012B1FD1BB8B914A32F81330184605F0E8F802460B461046194681A3D3E9002305F047
:400C80006FFA02460B4680A1D1E9000104F08AFF02460B461046194605F04AFB0346FB831EE0BB8B814A32F81330184605F0C8F802460B461046194675A3D3E9002305F0C1
:400CC0004FFA02460B4674A1D1E9000104F06AFF02460B461046194605F02AFB0346FB83BB8B9B0003F03C037A88120A92B2D2B202F00302D1B26E4AD154BB8B9B005A1C0F
:400D00006C4B1340002B03DA013B63F03F0301331A467B88D9B2664B9954BB8B9B009A1C644B1340002B03DA013B63F03F0301331A46FB8B1B0A9BB2DBB203F00303D9B201
:400D40005B4B9954BB8B9B00DA1C5A4B1340002B03DA013B63F03F0301331A46FB8BD9B2534B9954BB8B01339B0003F03C03002B09D100BF02F07AF80346002BFAD04C48C7
:400D8000402101F061FFBB8B0133BB83BB8BB3F5806FFFF41DAF2FE0FB681B78502B24D10020454905F09CFEF860FB681B78612B03D13B4B0A221A701EE0FB681B78412B31
:400DC00003D1374B01221A7016E0FB681B78622B03D1354B0A221A700EE0FB681B78422B0AD1314B01221A7006E0344800F08CFA02E0334800F088FA324B00221A7003F055
:400E000065FF0346FB71FB7903F00403002B18D02D4B1B78184600F085F90346BB80412000F082FABB881B0A9BB2DBB203F00303DBB2184600F078FABB88DBB2184600F04A
:400E400073FA04F087FB03461A46204B1B789A4212D01F4B1B78002B0ED0492000F064FA04F078FB0346184600F05EFA04F072FB03461A46154B1A70FFF70DB9AFF3008045
:400E8000D7A3703D0A5745400000000000F07F4012A5BDC1176613400000000000F88F40F88AFF1FF882FF1F8CA4FF1F048CFF1F4CA4FF1F3F0000804C7600007076000001
:400EC000947600000594FF1F48A4FF1F95A4FF1FFE8BFF1FAFF3008080B500AF62B6384B00221A80374B00221A700020012101F0D5FA00BF01F072FC0346002BFAD001F04F
:400F00004FFE002003F064FD01F0C4F901F0BEF803F0DCFC03F032FF04F0C0FD03F0DAFD40F2FF3003F05EFE40F2FF3003F03CFE254B01221A70254B01221A70244B002228
:400F40001A7003F0B7FE034623F00F03DBB2184603F0A0FE03F0AEFE034643F00203DBB2184603F097FE04F0D9FA034623F00103DBB2184604F0C2FA04F0D0FA034618469B
:400F800004F0BCFA03F08AFF04F032F811484FF4807103F093FF104B00221A7004F046F90E48012103F0C2FF0D4B00221A70002004F0C0FA0B4B00221A7004F0A3FB80BDD2
:400FC000F681FF1F0594FF1FF88AFF1F8CA4FF1F0494FF1FFC8AFF1FD481FF1F0464004095A4FF1FFE8BFF1F80B500AF022001214FF4804241F6FF7303F004FD03461A46D1
:40100000424B1A7000F0A4FE03461A46404B1A703F4B1A783E4B1B7810464FF400611A46062300F0C3FE3A4B1A783A4B9BB2104645F6A0311A4600F0F9FE344B1A78344BBB
:401040001B781046194600F0E9FD304B1B781846012100F019FF2D4B1B781846042100F0FBFD2A4B1B781846012100F023FD274B1B781846012100F01DFD022001214FF498
:40108000804241F6FF7303F0F1FC03461A46224B1A7000F05DFE03461A46204B1A701F4B1A781E4B1B7810464FF400611A46022300F07CFE194B1A78194B9BB2104645F643
:4010C000A2311A4600F0B2FE134B1A78134B1B781046194600F0A2FD0F4B1B781846012100F0D2FE0C4B1B781846042100F0B4FD094B1B781846012100F0DCFC064B1B78AA
:401100001846012100F0D6FC00BF80BD48A4FF1F008CFF1FF882FF1FF481FF1F94A4FF1F048CFF1F80B485B000AF0346FB71FB79DB0003F1804303F5F043DB79DBB29BB262
:401140001B029AB2FB79DB0003F1804303F5F0439B79DBB29BB21343FB81FA89094B9BB219466FF001035B1A13445B089BB2C3F30903FB81FB8918461437BD465DF8047B71
:40118000704700BFF882FF1F80B582B000AF01F0A7FE01F059FE0346002B5AD001F02CFE0346BB80BB88002B07D04F4801F070FE0346DAB24D4B1A7002E04B4801F068FEF2
:4011C0000023FB804A4B1B881946FB88464AD25C484B5A54FB880133FB80454B1B8801339AB2434B1A80424B1B88C3F30B039AB23F4B1A803E4B1A883F4B1B889A4205D0BE
:401200003A4B1B789BB2FA889A42DBD13A4B1B88FB80FB88374AD35C0A2B04D0FB88354AD35C0D2B09D1354B1B8801339AB2334B1A80FB882F4A0021D154FB880133FB80EE
:40124000FB88C3F30B03FB80294B1B88FA889A42DFD10023FB80294B1B88002B40D0284B1B78002B3CD117E0FB88234A12881146204A515C234AD154FB880133FB801E4B3D
:401280001B8801339AB21C4B1A801B4B1B88C3F30B039AB2184B1A80174B1B881A46154B9B5C002BE0D1FB88164A0021D154124B1B8801339AB2104B1A800F4B1B88C3F30B
:4012C0000B039AB20C4B1A800C4B1B88013B9AB20A4B1A80FB88002B02D0094B01221A700837BD4680BD00BF0894FF1F8DA4FF1FFC8BFF1F4894FF1F8EA4FF1FF681FF1FE6
:401300000594FF1F98A4FF1F80B582B000AF786000BF01F0ABFD0346002BFAD0786801F0E1FC0837BD4680BD80B582B000AF0346FB7100BF01F09AFD0346002BFAD0FB7927
:40134000184601F03DFD0837BD4680BD80B500AF05F052FB03461B680C2B00D1FEE7FEE780B584B000AF78600F4B1A687B6813441A460E4BD31A802B09DC0B4B1B68FB6031
:40138000094B1A687B681344074A136007E005F033FB02460C2313604FF0FF33FB60FB6818461037BD4680BD0C81FF1FD0A5FF1F80B586B000AF224B7B61224B3B61204B3C
:4013C0007B6135E03B691B68FB603B695B68BB603B699B683B6000237B600CE0FB681A68BB681A60BB680433BB60FB680433FB607B6804337B607A683B689A42EED13B6927
:40140000DB683B6000237B6008E0BB6800221A60BB680433BB607B6804337B607A683B689A42F2D13B6910333B617B69013B7B617B69002BC6D105F0E5FAFEF725FEFEE7A5
:4014400001000000787B000080B582B000AF184B184A1A60184A184B1B6843F40073136000237B600FE07B68032B04D8134A7B6852F8233000E0124B12497A6841F8223002
:401480007B6801337B607B682F2BECD90E4B1B78DAB20E4B1A700E4B0A4A1A6000F004FA00F0DAFA0B4B00221A600837BD4680BD0CED00E00004FA0514ED00E000000000D6
:4014C0004D1300000080FF1FBC7600400481FF1F08ED00E00081FF1F80B582B000AF78603960786800213A6805F0BDFA0837BD4680BD00BF80B584B000AFF860B9607A60EE
:40150000F868B9687A6805F0A3FA1037BD4680BD80B483B000AF0346FB71FEE780B487B000AF7860396000233B6100237B6127E07B699B007A6813441B68BB60BB68FB7348
:40154000BB6823F0FF03BB6014E03B695B003A6813441B781A46BB68134419463B695B003A6813445B780B703B6901333B61FB7B013BFB73FB7B002BE7D17B6901337B6139
:401580007B69212BD4D91C37BD465DF8047B704780B582B000AF3F4B01221A803E4B18221A703E4B01221A803D4B18221A703D4B01221A803C4B18221A703C4B23221A803B
:4015C0003B4B18221A703B4B8F221A803A4B18221A703A4B8F221A80394B18221A70394B06221A70384B52221A70384B384A1278D2B21A70374B40F20C721A80364B41F29B
:4016000051221A800023FB7019237B6014E0FB785B00DAB2314B1B78DBB203F00103DBB21343DBB203F00303FB704FF4F07004F067FA7B68013B7B607B68002B02D0FB78FE
:40164000032BE4D17B68002B02D10320FFF760FF234B4FF480721A80214B07221A70214B00221A70204B48221A701D4B00221A701E4B00221A701E4B02221A701D4A1D4B4C
:401680001B78DBB243F03F03DBB213700837BD4680BD00BF80400040824000408440004086400040884000408A4000408C4000408E400040904000409240004094400040D9
:4016C000964000400043004000420040A14600400F0100492242004020420040254200400440004006400040084000400940004001400040A243004080B582B000AF314B0F
:401700001B78FB71304B1B78BB71304B1B787B712F4AFB7903F00703DBB213702D4AFB791B09DBB21370284ABB7943F00303DBB21370264A7B7943F00303DBB21370264B50
:4017400080221A70254B01221A70254B40221A70244B40221A70244B40221A70234B40221A70234B02221A70224B20221A70224B04221A70214B04221A70214B10221A70FE
:40178000204B20221A70204B08221A701F4B20221A701F4B1F4A1A601F4B10221A701F4B02221A700A2000F0B3FB084A7B791370054ABB7913701A4B44221A700837BD46E4
:4017C00080BD00BFCF010049F8460040F94600406E5800406F5800401D5100403D5100400159004003590040095900400B5900408A5A0040985A00409A5A0040CE5A0040E0
:40180000205B0040235B0040285B00402B5B0040405B004006010201585B00405A5B00407658004080B483B000AF0346FB71FB79012B0ED8FB79094A52F82330FA79074953
:4018400051F822201178FA790548825C0A43D2B21A700C37BD465DF8047B7047B0760000B876000080B483B000AF0346FB71FB79012B10D8FB790A4A52F82330FA790849BA
:4018800051F822201178FA790648825CD243D2B20A40D2B21A700C37BD465DF8047B7047B0760000B876000080B582B000AF72B64C4A4C4B1B78DBB243F00403DBB213708A
:4018C0000023FB7113E0FA7913465B0013445B00454A13443B603B681A683B689B889BB210461946FFF7F8FDFB790133FB71FB79052BE8D94FF090403C49FFF70FFE3C4B9D
:4019000040F203121A803B480421FFF7E5FD3A480421FFF7E1FD39480421FFF7DDFD38480421FFF7D9FD374A364B1B78DBB243F00203DBB21370344A334B1B78DBB243F02B
:401940000203DBB21370314A304B1B78DBB243F04003DBB213702E4A2D4B1B78DBB243F01003DBB213702B482B490822FFF7C2FD2A482B490822FFF7BDFD2A482A490A22B9
:40198000FFF7B8FD29482A490822FFF7B3FD294829490A22FFF7AEFD284829490822FFF7A9FD284B4B221A70274B4B221A70274A264B1B78DBB243F00803DBB21370244BDE
:4019C00061221A70FFF7E4FD214BC1221A70FFF793FE20480D490E22FFF78CFD0837BD4680BD00BFE8460040BC760000880000484A5800400076004008760040107600406C
:401A0000187600400350014013500140A0430040C24300400251004068070048C251004070070048F0510040780700481251004084070048205100408C07004832510040CF
:401A400098070048580401405B0401402243004000480040B043004080B483B000AF134B7F221A70124B80221A707F23FB710CE0FB79DB0003F1804303F5F043FA79013AE1
:401A8000D2B21A70FB79013BFB71FB79002BEFD1FB79DB0003F1804303F5F04300221A700C37BD465DF8047B704700BF1181FF1F1081FF1F80B485B000AF03460A46FB71B4
:401AC0001346BB710123FB60FB79172B2FD8BB79002B0ED0FB791A01184B1344FA791101164A0A441278D2B242F02002D2B21A700DE0FB791A01114B1344FA7911010F4AEF
:401B00000A441278D2B222F02002D2B21A70FB791A010A4B1344FA791101084A0A441278D2B242F00102D2B21A700023FB60FB6818461437BD465DF8047B7047107000407E
:401B400080B485B000AF03460A46FB711346BB710123FB60FB79172B18D8FB791A010F4B13441B78DBB223F00E03FB72FB791A010A4B1344BA7902F00702D2B25200D1B2EB
:401B8000FA7A0A43D2B21A700023FB60FB6818461437BD465DF8047B704700BF1070004080B485B000AF0346FB710B46BB8013467B800123FB60BB8841F6FF72934202D100
:401BC0004FF40053BB807B8841F6FF72934202D14FF400537B80FB79172B17D8FB79DB0003F1804303F5EC430433BB60BB68BA881A80FB79DB0003F1804303F5EC430633A7
:401C0000BB60BB687A881A800023FB60FB6818461437BD465DF8047B704700BF80B485B000AF03460A46FB711346BB710123FB60FB79172B07D8FB791A01064B1344BA79D3
:401C40005A720023FB60FB6818461437BD465DF8047B70471070004080B485B000AF03460A46FB711346BB710123FB60FB79172B14D8FB791A010D4B1344FA7911010B4AE5
:401C80000A441279D2B2D1B2BA7902F00702D2B20A43D2B2D2B21A710023FB60FB6818461437BD465DF8047B704700BF1070004090B484B000AF0446084611461A4623463C
:401CC000FB710346BB710B467B7113463B710123FB60FB79172B34D8FB79DB0003F1804303F5EC43BA7902F07F02D1B27A79D201D2B20A43D2B21A70FB79DB0003F180437F
:401D000003F5EC433A7E1201D1B23A7902F00F02D2B20A43D2B25A70FB79DB0003F1804303F5EC433A7F02F00F02D2B29A70FB79DB0003F1804303F5EC430022DA70002326
:401D4000FB60FB6818461037BD4690BC704700BF80B582B000AFFF23FB7103F0D9FE0346BB71104B1B78182B12D90F4B1B78FB710C4B1B78013BDAB20A4B1A70FB79DB0003
:401D800003F1804303F5F0431B78DAB2064B1A70BB79184603F0C0FEFB7918460837BD4680BD00BF1081FF1F1181FF1F90B484B000AF0446084611461A462346FB71034601
:401DC000BB800B46BB711346FB700123FB60FB795BB2002B23DBBB8823F47F6323F00F039BB2002B1BD1FB79DB0003F1804303F5F043BB60BB68BA881A80FB79DB0003F1EB
:401E0000804303F5F043BA799A70FB79DB0003F1804303F5F043FA78DA700023FB60FB6818461037BD4690BC704700BF80B485B000AF0346FB710B46BB8013467B8001236E
:401E4000FB60FB795BB2002B17DBFB79DB0003F1804303F5F0430433BB60BB68BA881A80FB79DB0003F1804303F5F0430633BB60BB687A881A800023FB60FB681846143719
:401E8000BD465DF8047B704780B485B000AF03460A46FB711346BB710123FB60FB79172B21D8BB79002B0ED0FB791A01114B1344FA7911010F4A0A441278D2B242F01002C7
:401EC000D2B21A700DE0FB791A010A4B1344FA791101084A0A441278D2B222F01002D2B21A700023FB60FB6818461437BD465DF8047B70471070004080B483B000AF034610
:401F0000FB7101BE0C37BD465DF8047B704700BF80B582B000AF0346FB80FB88044A127802FB03F3184603F0EBFD0837BD4680BD2081FF1F80B584B000AF03463960FB71E1
:401F40000F4B1B68FB60FB791F2B02D90020FFF7D3FFFB7903F01F0310339B00FA6813441B68BB60FB7903F01F0310339B00FA6813443A681A60BB6818461037BD4680BDA6
:401F800008ED00E080B582B000AF03460A46FB711346BB71BB79072B02D90020FFF7ACFFFB791F2B02D90020FFF7A6FFFB7903F01F0303F1604303F56443BA795201D2B28D
:401FC0001A700837BD4680BD80B483B000AF7860264B1B78DBB21A467B681A60244B1B78DBB21B027A6812681A437B681A60214B1B78DBB21B047A6812681A437B681A6019
:402000001D4B1B78DBB21B067A6812681A437B681A607B680433194A1278D2B21A60184B1B78DBB21A027B6804337968043109680A431A60134B1B78DBB21A047B6804331F
:402040007968043109680A431A600F4B1B78DBB21A067B6804337968043109680A431A600C37BD465DF8047B704700BF0301004904010049EC4600400201004901010049DC
:4020800000010049050100490601004980B500AF054B1B78002B04D100F008F8024B01221A7000F023F880BDD681FF1F80B500AF01200721FFF766FF01200949FFF73AFF9F
:4020C000084A084B1B78DBB243F00603DBB213700C2000F071F8044B00221A8080BD00BF8922000009590040E0A4FF1F80B582B000AF03F00DFD0346FB71264A254B1B7819
:40210000DBB243F00203DBB21370234A224B1B78DBB243F00203DBB21370204B1B78BB71BB7943F00203BB71BB7943F00103BB711A4ABB7913701A4B04221A70194A194B38
:402140001B78DBB223F04003DBB21370154A154B1B78DBB243F00303DBB21370124B0E221A70124B02221A70114A114B1B78DBB243F00803DBB213700A20FFF7C9FE0D4B2B
:4021800002221A60FB79184603F0C6FC0837BD4680BD00BFAB430040BB4300400B5900400E5900400D59004008590040164600402F5B004080E200E080B584B000AF0346B5
:4021C000FB71FB790A2B07D00C2B02D0082B06D008E0C423FB730BE08423FB7308E04423FB7305E0C423FB730020FFF785FE00BF044AFB7B1370FB79184600F005F8103708
:40220000BD4680BD0A59004080B584B000AF0346FB71FB790A2B08D00C2B02D0082B08D00BE04FF48053FB600DE04FF48063FB6009E04FF48073FB6005E00023FB60002092
:40224000FFF75AFE00BF0C4B00221A80FB6842F2107202FB03F303F6C413084A82FB0312D212DB17D31A064A1360064B00221A801037BD4680BD00BFDAA4FF1FAD8BDB688E
:40228000DCA4FF1FD8A4FF1F80B400AFBD465DF8047B704780B500AF054B1B78002B04D100F008F8024B01221A7000F023F880BDD781FF1F80B500AF00200721FFF762FE84
:4022C00000200949FFF736FE084A084B1B78DBB243F00603DBB213700C2000F071F8044B00221A8080BD00BF9124000001590040E4A4FF1F80B582B000AF03F009FC034659
:40230000FB71264A254B1B78DBB243F00103DBB21370234A224B1B78DBB243F00103DBB21370204B1B78BB71BB7943F00203BB71BB7943F00103BB711A4ABB7913701A4BD0
:4023400004221A70194A194B1B78DBB223F04003DBB21370154A154B1B78DBB243F00303DBB21370124B0E221A70124B02221A70114A114B1B78DBB243F00803DBB21370F1
:402380000A20FFF7C5FD0D4B01221A60FB79184603F0C2FB0837BD4680BD00BFAB430040BB4300400359004006590040055900400059004014460040275B004080E200E00A
:4023C00080B584B000AF0346FB71FB790A2B07D00C2B02D0082B06D008E0C423FB730BE08423FB7308E04423FB7305E0C423FB730020FFF781FD00BF044AFB7B1370FB793C
:40240000184600F005F81037BD4680BD0259004080B584B000AF0346FB71FB790A2B08D00C2B02D0082B08D00BE04FF48053FB600DE04FF48063FB6009E04FF48073FB6089
:4024400005E00023FB600020FFF756FD00BF0C4B00221A80FB6842F2107202FB03F303F6C413084A82FB0312D212DB17D31A064A1360064B00221A801037BD4680BD00BF25
:40248000E8A4FF1FAD8BDB68ECA4FF1FE6A4FF1F80B400AFBD465DF8047B704780B582B000AF03460A46FB711346BB71084B1B78002B04D100F00EF8054B01221A70FA7944
:4024C000BB791046194600F0D5F80837BD4680BDD881FF1F80B582B000AF03F019FB0346FB71534A524B1B78DBB243F00103DBB21370504A4F4B1B78DBB243F00103DBB2B5
:4025000013704D4B01221A704C4B02221A704C4A4B4B1B78DBB203F07F03DBB213700020FFF7F6FC474A474B1B78DBB223F00603DBB21370444A444B1B78DBB223F02003D3
:40254000DBB213703F4A3F4B1B78DBB243F00103DBB213700120FFF7DBFC2820FFF7D8FC3A4A3A4B1B78DBB203F07F03DBB21370364A364B1B78DBB223F04003DBB213709C
:40258000304A304B1B78DBB243F00203DBB213700220FFF7BDFC2B4A2A4B1B78DBB243F00403DBB213702A4B00221A70294B00221A70FB79184603F0AFFA17200721FFF795
:4025C000E1FC17202449FFF7B5FC18200721FFF7D9FC18202149FFF7ADFC15200721FFF7D1FC15201E49FFF7A5FC02200721FFF7C9FC02201B49FFF79DFC03200721FFF799
:40260000C1FC03201849FFF795FC04200721FFF7B9FC04201549FFF78DFC0C200721FFF7B1FC0C201249FFF785FC0837BD4680BDA5430040B54300409D6000400960004020
:40264000106000409443004012600040F85100408460004085600040E1360000CD2F0000D5360000ED3500003536000081360000ED36000080B582B000AF03460A46FB716F
:402680001346BB712E4AFB7913702E4B00221A702D4B00221A702D4B00221A702C4B00221A702C4B00221A702B4B00221A702B4B00221A702A4B4FF400021A60284B4FF049
:4026C00080721A60264B4FF400121A60244B04221A60234B08221A60214B10221A60BB79002B02D0012B09D011E01E4A1D4B1B78DBB223F00103DBB2137011E0194A194BFF
:402700001B78DBB243F00103DBB2137008E0154A144B1B78DBB243F00103DBB2137000BF114B03221A70114B80221A70012003F0E7F90F4B04221A700837BD4680BD00BF97
:4027400009A5FF1F0CA5FF1F28A5FF1F2BA5FF1F20A5FF1F2AA5FF1F2DA5FF1F08A5FF1F00E100E00960004028600040086000401260004080B400AF0F4B00221A700F4B8B
:4027800000221A700E4B00221A700E4B00221A700D4B00221A700D4B00221A700C4B00221A700C4B03221A700B4B80221A70BD465DF8047B704700BF0CA5FF1F28A5FF1FC9
:4027C0002BA5FF1F20A5FF1F2AA5FF1F2DA5FF1F08A5FF1F286000400860004080B400AF034B1B78DBB21846BD465DF8047B70472BA5FF1F80B483B000AF0346FB71FA7987
:40280000064913465B0013449B000B445B78DBB218460C37BD465DF8047B704730A5FF1F80B485B000AF0346FB710023FB81FB79002B1BD0FB79082B18D8104AFB791B015B
:4028400013441B78DBB29BB203F00F03FB81FB891B029AB20949FB791B010B445B78DBB29BB21343FB81FB89023BFB81FB8918461437BD465DF8047B704700BFFC5F004024
:40288000B0B485B000AF03463960FB711346BB80FB79002B66D0FB79082B63D8B988FA79324813465B0013449B000344DB889BB2C3F5007399420BD9FA792C4913465B00E6
:4028C00013449B000B44DB889BB2C3F50073BB80274CF979BB881B0A9BB2D8B2FA79234D13465B0013449B002B44DB78DBB20343DAB20B0123441A701D4AFB79B988C9B21F
:402900001B0113440A465A703B68002B13D00023FB810CE01748FB79FA8939680A4412781B01034408331A70FB890133FB81FA89BB889A42EED3FA790C4913465B0013446D
:402940009B000B4400225A700948F979FA79074C13465B0013449B0023445B79DAB20B0103449A701437BD46B0BC704730A5FF1FFC5F00407060004080B584B000AF0346BE
:402980003960FB711346BB803B68002B30D0FB79002B2DD0FB79082B2AD8FB791846FFF73FFF03461A46BB88934205D9FB791846FFF736FF034600E0BB88BB800023FB8183
:4029C0000DE0FB893A6813440D49FA7912010A4408321278D2B21A70FB890133FB81FA89BB889A42EDD3FB79184600F00BF801E00023BB80BB8818461037BD4680BD00BFF0
:402A00007060004090B482B000AF0346FB71FB79002B19D0FB79082B16D8FA790C4913465B0013449B000B4400225A700948F979FA79074C13465B0013449B0023445B797C
:402A4000DAB20B0103449A700837BD4690BC704730A5FF1FFC5F004080B582B000AF0023FB71324B1B79DBB2184600F069F80346BB712E4B1B78DBB2DBB25BB2002B16DAE5
:402A80002A4B5B78DBB2212B00D00FE0284B07221A80BA791346DB009B1A264A1344244A536000F00DFC0346FB7100BF38E01F4B5B78DBB2202B02D0222B1AD030E01C4BE2
:402AC00007221A80BA791346DB009B1A194A1344174A5360BB79BA7917498A5CD2B242F00102D1B2144AD15400F06AFC0346FB7116E0BB790D4A9278D2B291B20F4A22F8ED
:402B00001310BB79BA790C498A5CD2B242F00202D1B2094AD15400F0EFFC0346FB7100BFFB7918460837BD4680BD00BF0060004014A5FF1F2881FF1FF0A4FF1F04A5FF1F05
:402B400080B485B000AF0346FB710023FB73FF23BB7317E0FB7B104AD35C7B737A7B0F4913465B0013449B000B4408339B78DBB2FA799A4203D1FB7BBB730223FB73FB7BD6
:402B80000133FB73FB7B012BE4D9BB7B18461437BD465DF8047B7047F8A4FF1F30A5FF1F80B582B000AF0023BB71224B00221A70214B00221A70204B00225A700023FB717E
:402BC00010E0FB791D4AD35C7B717B79002B06D07B79082B03D87B791846FFF713FFFB790133FB71FB79012BEBD9154B1B78DBB2002B18D0114B1B78DBB2002B13D0114BAD
:402C00001B78DBB2002B0ED00D4B1B78DBB2082B09D80A4B1B78DBB2082B04D8094B1B78DBB2082B01D90123BB71BB7918460837BD4680BDD981FF1FF0A4FF1FFCA4FF1F91
:402C4000F4A4FF1FF8A4FF1F80B584B000AF78600B467B80144B1B781A46144B9B5CFB73FA7B134913465B0013449B000B4408331B889BB27A889A420CD9FA7B0C491346BB
:402C80005B0013449B000B4408331B887B800020FFF732F9FA7B7B88104679681A46FFF7EFFD1037BD4680BDD981FF1FF4A4FF1F30A5FF1F80B485B000AF78600023FB8136
:402CC00002E0FB890133FB81FB897A6813441B78002BF6D1FB8918461437BD465DF8047B704700BF80B584B000AF78600023BB81304B1B781A46304B9B5CFB727868FFF790
:402D0000D9FF0346FB81FA7A2C4913465B0013449B000B4408331B889BB2FA899A420AD9FA7A264913465B0013449B000B4408331B889BB200E0FB893B81BB897A681A4404
:402D4000F97A3B89084611461A46FFF799FDFA893B89D31AFB81FB89002B0CD1FA7A174913465B0013449B000B4408331B889BB23A899A4218D1BA893B891344BB8100BF7A
:402D8000FA7A0E4913465B0013449B000B445B78DBB2002BF4D0FB89002B05D1FB7A184600210022FFF76CFDFB89002BABD11037BD4680BDD981FF1FF4A4FF1F30A5FF1F37
:402DC00080B584B000AF0346FB71FB79FB73084B1B781A46074B9B5CDAB207F10F03104619460122FFF74CFD1037BD4680BD00BFD981FF1FF4A4FF1F80B582B000AF0F4B04
:402E00001B781A460E4B9B5C7B717A790D4913465B0013449B000B445B78DBB2012B06D17B791846FFF7FCFC0346FB8001E00023FB80FB8818460837BD4680BDD981FF1F67
:402E4000FCA4FF1F30A5FF1F80B500AF054B1B781A46054B9B5CDBB21846FFF7CBFC0346184680BDD981FF1FFCA4FF1F80B500AF054B1B781A46054B9B5CDBB21846FFF722
:402E8000B9FC0346184680BDD981FF1FF4A4FF1F80B584B000AF78600E4B1B781A460E4B9B5CFB73FA7B0D4913465B0013449B000B4408331B889BB2FA7B104679681A465A
:402EC000FFF75AFD0346BB81BB8918461037BD4680BD00BFD981FF1FFCA4FF1F30A5FF1F80B483B000AF0023FB71104B1B78DBB2002B13D10E4B1B781A460E4B9B5CDBB297
:402F0000002B0BD00A4B1B781A460A4B9B5CFB71074B1B781A46074B00219954FB7918460C37BD465DF8047B704700BF0CA5FF1FD981FF1FF0A4FF1F80B485B000AF78609B
:402F40000B46FB701346BB707B68DB7803F00303FB737B689B78DBB25BB2002B1ADAFB7B032B0AD0BB7803F001031549FA78CA54BB7843F00103BB701BE0BB789B08DBB23C
:402F800003F001030F49FA78CA54BB7843F00403BB700EE0FB7B032B0BD0BB785B08DBB203F001030849FA78CA54BB7843F00203BB70BB7818461437BD465DF8047B704732
:402FC000F4A4FF1FF8A4FF1FFCA4FF1F80B582B000AF374B1B78BB71BB7903F01003002B63D00123FB71BB795BB2002B13DABB7903F00F03012B02D00023FB711DE000F018
:4030000061F82C4B1B78DBB2DBB25BB2002B14DA0023FB7111E0BB7903F04003002B02D000F094F809E0BB7903F02003002B02D000F0B2F801E00023FB71FB79002B34D0AD
:403040001B4B1B78BB71BB795BB2002B2DDB1A4B1B78DAB2194B1B78DBB21343BB71184ABB791370164B1B78DBB2BA799A421CD1104B1B78FB710E4B1B78DBB223F07F032F
:40308000BB71BB79002B0AD1094B0A4A1278D2B21A70074B1B78DBB203F00F03FB71054B1B78DBB2FA799A42E2D10837BD4680BD2860004029A5FF1F9EA5FF1F2CA5FF1F92
:4030C0002960004080B582B000AF1D4B1B78FB711B4AFB7913701A4B1B78FB71FB795BB2002B03DA174AFB79137025E0022000F043FA154B1B78DBB203F06003202B08D09C
:40310000402B0BD0002B0ED100F0F6FA0346FB710CE002F005FD0346FB7107E001F0B2FA0346FB7102E00023FB7100BFFB79002B02D1044B03221A700837BD4680BD00BFFE
:403140002860004029A5FF1F0060004080B500AF104B1B78DBB2062B19D801A252F823F08F3100008F3100007D3100008F310000833100008F3100008931000000F0FAF87C
:4031800006E000F0A9F903E000F0D2F900E000BF80BD00BF0CA5FF1F80B500AF124B1B78DBB2062B1DD801A252F823F0E3310000E3310000C9310000E3310000CF310000D2
:4031C000E3310000D531000000F0DAF80AE000F029F907E0032000F0CFF9044B03221A7000E000BF80BD00BF0CA5FF1F29A5FF1F80B483B000AF0023FB71294B1B78DBB2A8
:403200009AB2284B1B889BB213449AB2254B1A8015E02549FB79254A52681278D2B2CA54224B5B680133214A5360FB790133FB711E4B1B889BB2013B9AB21C4B1A801B4B28
:403240001B889BB2002B02D0FB79072BE1D9144B1B78DBB2082B02D0FB79002B0FD0144B1B78DBB283F07F03DB43DAB2104B1A70104B0F221A70104B02221A7005E00D4BA0
:4032800002221A700C4B02221A700C4AFB791370034AFB7913700C37BD465DF8047B704708A5FF1F0AA5FF1F0060004014A5FF1F9EA5FF1F29A5FF1F0CA5FF1F2CA5FF1FDF
:4032C00080B582B000AF164B1B889BB2002B02D100F02EF81EE0134B02221A70124B00221A7000F069F9114BDB79DBB29BB21B029AB20E4B9B79DBB29BB21343FB80084B90
:403300001B889BB2FA889A4202D2054AFB881380FFF76EFF012318460837BD4680BD00BF14A5FF1F0CA5FF1F9EA5FF1F0060004080B400AF0A4B02221A700A4B80221A70D5
:40334000094B0F221A70094B00221A70084B00221A7001231846BD465DF8047B704700BF0CA5FF1F9EA5FF1F29A5FF1F08A5FF1F2CA5FF1F80B500AFFFF73AFF80BD00BF8B
:4033800080B500AF0A4B1B78DBB29AB2094B1B889BB213449AB2074B1A80074B00221A70012000F0E9F8054B03221A7080BD00BF08A5FF1F0AA5FF1F0CA5FF1F29A5FF1F57
:4033C00080B582B000AF124B04221A70114B80221A7000F0F1F8104BDB79DBB29BB21B029AB20D4B9B79DBB29BB21343FB800B4B1B889BB2FA889A4202D2084AFB88138060
:40340000074B0B221A70012318460837BD4680BD0CA5FF1F9EA5FF1F0060004014A5FF1F29A5FF1F80B483B000AF0023BB71234B1B78DBB203F00F03DBB2023BFB71FB794D
:403440009AB21F4B1B889BB213449AB21C4B1A8018E01C4B5B681C49BA798A5CD2B21A70184B5B680133174A5360BB790133BB71FB79013BFB71134B1B889BB2013B9AB260
:40348000104B1A800F4B1B889BB2002B02D0FB79002BDED10D4AFB7913700D4B1B78DBB283F07F03DB43DAB2094B1A70094B0B221A700C37BD465DF8047B7047296000409A
:4034C0000AA5FF1F14A5FF1F006000402CA5FF1F9EA5FF1F29A5FF1F80B500AF044B00221A70012000F048F8024B03221A7080BD0CA5FF1F29A5FF1F80B400AF084B0622CA
:403500001A70084B06221A70074B80221A70074B00221A7001231846BD465DF8047B70470CA5FF1F29A5FF1F9EA5FF1F2CA5FF1F80B500AF0C4B1B78DBB2002B0AD00B4AB0
:40354000094B1B78DBB263F07F03DBB21370064B00221A70064B00221A70012000F00CF8044B03221A7080BD2AA5FF1F086000400CA5FF1F29A5FF1F80B483B000AF0346F9
:40358000FB710B4B9B68002B0CD0094B9B68FA791A70074B9B68074A128892B25A80044B00229A600C37BD465DF8047B704700BF14A5FF1F0AA5FF1F80B400AF094B002295
:4035C0001A80094B9B68002B07D0074B9B6800221A70054B9B6800225A80BD465DF8047B704700BF0AA5FF1F14A5FF1F80B400AF0D4B01221A700D4B9B7C0D4B1B7BDBB2C5
:4036000003F00303012B08D0094BDB7BDBB283F07F03DB43DAB2064BDA73054B01225A73BD465DF8047B70470B600040FC5F004030A5FF1F80B400AF0E4B02221A700E4BCF
:4036400093F822300D4B1B7EDBB203F00303012B08D00A4BDB7EDBB283F07F03DB43DAB2064BDA76054B01225A76BD465DF8047B704700BF0B600040FC5F004030A5FF1FAE
:4036800080B400AF104B04221A70104B93F832300F4B93F82430DBB203F00303012B0AD00B4B93F82730DBB283F07F03DB43DAB2074B83F82720064B012283F82520BD4660
:4036C0005DF8047B704700BF0B600040FC5F004030A5FF1F80B400AFBD465DF8047B704780B500AFFFF746F880BD00BF80B500AF01F0C0FA80BD00BF80B586B000AF0023FA
:40370000FB759D4B1B78FB7100233B619B4B00221A80FB795BB2002B80F20481964B5B78DBB20A2B00F2FC8001A252F823F000BF79380000213900002139000021390000CC
:4037400021390000213900005D37000021390000EB3800002139000001390000864BDB78DBB2012B0ED100F017FEB860BB685B68824A5360814B12221A80FFF7A1FD03463B
:40378000FB7578E07C4BDB78DBB2022B24D17A4B9B78DBB2184600F0D5FDB860BB68002B69D0BB685B68754A5360744B5B6803331B78DBB29BB21B029AB2704B5B680233BB
:4037C0001B78DBB29BB213439AB26C4B1A80FFF777FD0346FB75A4E0674BDB78DBB2032B44D10023FB73664B3B6109E03B691B78BB71BB793A6913443B61FB7B0133FB73E1
:403800005D4B9B78DBB2FA7B9A4204D23B691B78DBB2002BEAD1584B9B78DBB2EE2B01D1584B3B61544B9B78DBB2002B0BD0524B9B78DAB2544B1B7C9A4204D1534800F00F
:40384000A1F9524B3B613B691B78DBB2002B12D03B691B78DBB29AB2484B1A80474A3B695360FFF72DFD0346FB755AE002F058F90346FB7555E054E0FB7903F00303002B6F
:403880001FD0022B00D02FE03C4B02221A803A4B1B79DBB203F07F023D4913465B0013449B000B449B78DAB23A4B1A70394B00225A70324B374A5A60FFF702FD0346FB75AF
:4038C00012E02E4B02221A80334B1B78DAB2314B1A70304B00225A70284B2E4A5A60FFF7EFFC0346FB7500BF1BE0244B01221A80224B2A4A5A60FFF7E3FC0346FB7510E057
:403900001E4B01221A801C4B1B79DBB21A46244B13441A4A5360FFF7D3FC0346FB7500E000BF19E1144B5B78DBB2013B0A2B00F2128101A252F823F0433A0000573B0000C1
:40394000CD3A0000573B000065390000573B0000573B0000573B0000A9390000573B0000FF390000044B9B78DAB20E4B1A70FFF7C3FD0346FB75EFE00060004014A5FF1F28
:40398000807800008879000028780000A4A5FF1F30A5FF1FDC81FF1F2DA5FF1F2BA5FF1F9CA5FF1F2AA5FF1F6E4B9B787B717B79002B06D07B79013BDBB2184600F0C2FCF9
:4039C000B8607B79002B02D0BB68002B02D17B79002B13D1644B1B78DBB27A799A4208D0614A7B791370614B01221A70012000F0C1F9FFF781FD0346FB75ADE0ACE000F0A8
:403A000009FE0346002B1BD0564B1B793B71554B1B79DAB2564B1A703B79564AD35CDAB23B795549CB5CDBB29A4204D04F4B01221A7000F069FBFFF75FFD0346FB758BE07E
:403A40008AE0FB7903F00303012B22D0012B0DD3022B00D039E0434B9B78DBB2002B04D100F040FD0346FB752FE02EE03D4B9B78DBB2012B0CD1414B1B78DBB223F0020309
:403A8000DAB23E4B1A70FFF737FD0346FB751CE01BE0344B1B79DBB2012B15D8314B9B78DBB2DB43DBB22F4A1279D2B211461046334A125CD2B21340DAB2314B5A54FFF76A
:403AC0001BFD0346FB75FFE700BF45E0FB7903F00303012B22D0012B0DD3022B00D039E0204B9B78DBB2002B04D100F08DFC0346FB752FE02EE01B4B9B78DBB2012B0CD115
:403B00001E4B1B78DBB243F00203DAB21B4B1A70FFF7F2FC0346FB751CE01BE0114B1B79DBB2012B15D80F4B9B78DBB2DB43DBB20C4A1279D2B211461046114A125CD2B21A
:403B40001340DAB20E4B5A54FFF7D6FC0346FB75FFE700BF00E000BFFB7D18461837BD4680BD00BF006000402BA5FF1F28A5FF1F20A5FF1F10A5FF1F9CA5FF1F2DA5FF1FF8
:403B8000A0A5FF1FB0B58AB000AF7860314B07F114041D460FCD0FC42B682370002387F826307B68002B52D07B6822221A707B68013303221A7007F10C031846FEF704FAC1
:403BC000022387F827303EE097F827307A68134497F8262007F128010A4412F81C2C1209D2B207F128010A4412F8142C1A7097F8273001337A68134400221A7097F8273030
:403C000002337A68134497F8262007F128010A4412F81C2C02F00F0207F128010A4412F8142C1A7097F8273003337A68134400221A7097F82630013387F8263097F8273065
:403C4000043387F8273097F82730212BBCD92837BD46B0BDE076000090B482B000AF0123FB7174E03F4AFB791B0113440C221A70FA793D4913465B0013449B000B445B7958
:403C8000DBB2002B1AD0FA79374913465B0013449B000B441B79DBB2DBB25BB2002B06DA324AFB791B0113440C229A700CE02F4AFB791B01134408229A7005E02B4AFB79CB
:403CC0001B01134480229A702648F979FA79264C13465B0013449B002344DB889BB2DAB20B0103449A711F48F979FA791E4C13465B0013449B002344DB889BB21B0A9BB254
:403D0000DAB20B010344DA711648F979FA79164C13465B0013449B002344DB889BB2DAB20B0103441A710F48F979FA790E4C13465B0013449B002344DB889BB21B0A9BB2C8
:403D4000DAB20B0103445A71FB790133FB71FB79082B87D9064BFF221A700837BD4690BC704700BF7060004030A5FF1FFC5F00400A60004080B58AB000AF0346FB71002340
:403D80007B84002387F827304CE097F82720C44913465B0013449B000B4400221A7097F82720BF4913465B0013449B000B4400229A7097F82720BA4913465B0013449B00DD
:403DC0000B440022DA7097F82720B54913465B0013449B000B44083300221A8097F82720AF4913465B0013449B000B44083300229A7097F82720AA4913465B0013449B00AF
:403E00000B4400225A7097F82720A54913465B0013449B000B4400225A7197F82730013387F8273097F82730082BAED9FB79002B16D0002387F825300EE097F82530994AE0
:403E40000021D15497F82530974A0021D15497F82530013387F8253097F82530012BECD9924B1B78DBB2002B00F049810023FB768E4B1B78DBB2013BDBB2184600F062FA4E
:403E800078617B695B683B613B6907331B7803F04003002B08D0864B1B78DBB243F00103DAB2834B1A7007E0814B1B78DBB223F00103DAB27E4B1A707B6908337B617B6988
:403EC0001B7887F82730012387F82530B3E07B695B68FB61002387F82630A0E097F82520FB699B7803F07F039A4240F0908097F825206B4913465B0013449B000B440833BF
:403F00001B889AB2FB699B889A420CD297F82520FB699888624913465B0013449B000B44083302461A80FB691B781A465D4B9B5CDAB2FB695B789A4269D197F82520FB6935
:403F40009878574913465B0013449B000B4402461A7197F82520FB69D878514913465B0013449B000B4402461A70FB69DB7803F00303FB73FB699B78DBB25BB2002B1ADA92
:403F800097F82520FB7B012B01D1072000E00D20434913465B0013449B000B4402465A7197F825203E4913465B0013449B000B4401225A7019E097F82520FB7B012B01D173
:403FC000052000E00920364913465B0013449B000B4402465A7197F82520314913465B0013449B000B4400225A70FB699B790A2B03D0FB699B79022B09D197F82520FB7E91
:40400000F86911461A46FEF797FF0346FB76FB690833FB6197F82630013387F8263097F8262097F827309A42FFF458AF97F82530013387F8253097F82530082B7FF647AF3B
:404040007B695B68FB61002387F8253016E0FB699B7803F07F02FB691878114913465B0013449B000B44083302469A70FB690833FB6197F82530013387F8253097F82520DA
:4040800097F827309A42E2D300F098F90246094B1A6000237B84012387F8273029E000BF30A5FF1F9CA5FF1F10A5FF1F2BA5FF1F2DA5FF1F24A5FF1F97F82720114913469B
:4040C0005B0013449B000B447A8CDA8097F827200C4913465B0013449B000B4408331B889AB27B8C13447B8497F82730013387F8273097F82730082BDED9FFF7ADFD28375E
:40410000BD4680BD30A5FF1F90B585B000AF874B1B78DBB2002B00F00681844B1B78DBB2013BDBB2184600F00DF978607B6808337B607B681B78FB707B685B68BB607C4B49
:404140001B78BB700023FB73E8E0BB681B78BA789A4240F0DD80BB78764AD35CDAB2BB685B789A4240F0D480BB689B7803F07F037B70BB68DB7803F003033B707A786E497A
:4041800013465B0013449B000B440022DA707A78BB689878684913465B0013449B000B4402461A717A78BB68D878634913465B0013449B000B4402461A707A78BB689888F3
:4041C0005D4913465B0013449B000B44083302461A80BB689B78DBB25BB2002B18DA7A783B78012B01D1072000E00D20524913465B0013449B000B4402465A717A784E4917
:4042000013465B0013449B000B4401225A7017E07A783B78012B01D1052000E00920464913465B0013449B000B4402465A717A78414913465B0013449B000B4400225A70E0
:404240003E4A7B781B01134401229A703B4879787A78394C13465B0013449B00234408331B889BB21B0A9BB2DAB20B0103441A70324879787A78304C13465B0013449B00A6
:40428000234408331B889BB2DAB20B0103445A702B4879787A78284C13465B0013449B002344DB889BB2DAB20B0103449A71244879787A78204C13465B0013449B0023448A
:4042C000DB889BB21B0A9BB2DAB20B010344DA711B4879787A78184C13465B0013449B002344DB889BB2DAB20B0103441A71144879787A78104C13465B0013449B002344F9
:40430000DB889BB21B0A9BB2DAB20B0103445A71BB680833BB60FB7B0133FB73FA7BFB789A42FFF412AF1437BD4690BD2BA5FF1F20A5FF1F9CA5FF1F30A5FF1FFC5F00404F
:404340007060004080B485B000AF0346FB71104B1B78DBB20F4ADB0013445B68FB60FB681033FB60FB681B78FA799A4202D30023FB6005E0FB79DB00FA6813445B68FB6098
:40438000FB6818461437BD465DF8047B704700BF09A5FF1F8079000080B400AF054B1B78DBB2054ADB0013445B681846BD465DF8047B704709A5FF1F8079000080B584B02E
:4043C00000AF104B1B78DBB2013BDBB21846FFF7B9FFB860BB68002B0DD0BB685B681B79FB71FB790233DB00BA681344BB60BB685B68FB6001E00023FB60FB6818461037D5
:40440000BD4680BD2BA5FF1F80B582B000AF0023FB71314B1B79DBB203F07F03BB71BB79002B53D0BB79082B50D8BA79B9792B480B465B000B449B0003449B78DBB243F0D2
:404440000103D8B2254913465B0013449B000B4402469A70BA79214913465B0013449B000B440022DA70BA79B9791C480B465B000B449B0003445B78DBB243F00203D8B233
:40448000164913465B0013449B000B4402465A70BA79124913465B0013449B000B441B79DBB2DBB25BB2002B06DA0D4ABB791B0113448D229A7005E0094ABB791B011344B7
:4044C00089229A70FFF718F80346FB71FB7918460837BD4680BD00BF0060004030A5FF1FFC5F004080B582B000AF0023FB71464B1B79DBB203F07F03BB71BB79002B7DD06A
:40450000BB79082B7AD8BA79B97940480B465B000B449B0003449B78DBB223F00103D8B23A4913465B0013449B000B4402469A70BA79364913465B0013449B000B44002224
:40454000DA70334ABB791B0113447F221A70BA79B9792E480B465B000B449B0003445B78DBB223F00203D8B2284913465B0013449B000B4402465A70BA79244913465B001C
:4045800013449B000B441B79DBB2DBB25BB2002B18DABA791D4913465B0013449B000B445B78DBB2012B06D1194ABB791B0113440C229A701EE0164ABB791B0113440D227B
:4045C0009A7017E0BA79114913465B0013449B000B445B78DBB2012B06D10D4ABB791B01134408229A7005E0094ABB791B01134409229A70FEF780FF0346FB71FB79184694
:404600000837BD4680BD00BF0060004030A5FF1FFC5F004080B584B000AF0023FB73154B1B79BB73144B1B78DBB2013BDBB21846FFF788FEB860BB685B681B79FB71BA7BEE
:40464000FB799A4202D9BB7B022B0ED8BB7BBA7B0A498A5CD1B20A4AD154BB7B054A9278D1B2064AD1540123FB73FB7B18461037BD4680BD006000402BA5FF1F9CA5FF1FC5
:4046800010A5FF1F80B582B000AF0023FB710F4B1B78DBB2DBB25BB2002B12DA0B4B5B78DBB2012B00D00CE0094B0A4A5A60094B1B789AB2064B1A80FEF702FE0346FB718F
:4046C00000BFFB7918460837BD4680BD0060004014A5FF1F9C79000080B584B000AF03460A46FB8013467B7100F0B2F80346FB7300F0A2F80346BB81FA88BB899A4200F0BB
:404700008780454B1B78DBB203F00803FB72FB7B002B20D1BB89002B02D0FB88002B1AD1BB89002B0BD13D4AFB8813803C4A3C4B1B78DBB223F04003DBB2137068E0384AA6
:40474000374B1B78DBB243F04003DBB21370334AFB8813805CE0FB7A002B33D0314B00221A70314B08221A70304B00221A70304A2F4B1B78DBB203F07F03DBB21370284B14
:404780001B78DBB203F00803002B02D0FB88002B18D1284ABB891380224B07221A7000BF204B1B78DBB203F00103002BF8D11A4A194B1B78DBB223F00803DBB21370194B2F
:4047C00000221A70144B1B78DBB203F00803002B13D0184AFB881380124A7B79002B01D0032300E00123137000BF0E4B1B78DBB203F00103002BF8D10AE0084AFB8813809C
:404800000549054B1B78DAB2FB7A1343DBB20B701037BD4680BD00BFA24300408C4000408E400040014000401040004014400040084000400240004080B400AF034B1B88E0
:404840009BB21846BD465DF8047B70478C40004080B400AF054B1B78DBB203F00703DBB21846BD465DF8047B704700BF8E40004080B500AF064B00221A70064B00221A707F
:40488000042000F057F8002000F034F880BD00BF2C5800402D58004080B400AF094A094B1B78DBB243F00803DBB21370064A064B1B78DBB243F00803DBB21370BD465DF875
:4048C000047B7047A8430040B843004080B500AF074B1B78002B04D1FFF7CAFF044B01221A70FFF7D9FF9C2000F044F880BD00BFE081FF1F80B483B000AF0346FB710C4A46
:404900000B4B1B78DBB223F00203DBB213700849074B1B78DAB2FB7903F00203DBB21343DBB20B700C37BD465DF8047B704700BF2C58004080B582B000AF0346FB710C4A4B
:404940000B4B1B78DBB223F00C03DBB213700849074B1B78DAB2FB7903F00C03DBB21343DBB20B7000F016F80837BD4680BD00BF2C58004080B483B000AF0346FB71044A53
:40498000FB7913700C37BD465DF8047B704700BF835B004080B483B000AF0B4B1B78DBB203F00C039B08DBB20633FB71074AFB7903F1924303F59C731B78DBB213700C3774
:4049C000BD465DF8047B70472C5800400B46004080B582B000AF0346FB71094B1B78FF2B04D0074B1B781846FCF73CFFFB791846FCF718FF024AFB7913700837BD4680BD15
:404A00004481FF1F90B585B002AF0446084611461A462346FB710346BB710B46BB8013467B80114B00221A700F4B1878F979BA7900230093002301930023FDF739F90A4B4D
:404A40001978BA887B88084611461A46FDF7A8F8054B1B7818460221FDF772F8024B1B7818460C37BD4690BD4581FF1F90B585B002AF0446084611461A462346FB710346B8
:404A8000BB710B46BB8013467B80114B01221A700F4B1878F979BA7900230093002301930023FDF705F90A4B1978BA887B88084611461A46FDF774F8054B1B7818460221DC
:404AC000FDF73EF8024B1B7818460C37BD4690BD4681FF1F80B500AF054B1B78002B04D100F008F8024B01221A7000F04DF880BDE181FF1F80B582B000AF1F4B1B78DBB293
:404B000023F03F03FB711C4AFB7943F00A03DBB213701A4A194B1B78DBB243F00103DBB21370174A164B1B78DBB243F00103DBB2137040F2FF3000F037F840F2FF3000F061
:404B400051F8012000F05EF8002000F06BF800F0DFFF0346BB710B4A0A4B1B78DBB243F01003DBB21370BB79184600F0D5FF00F02BF80837BD4680BD746400409664004075
:404B8000976400409464004080B400AF054A054B1B78DBB263F07F03DBB21370BD465DF8047B70477464004080B483B000AF0346FB80044AFB8813800C37BD465DF8047BFD
:404BC000704700BF0C68004080B500AF01E000F045F800F037F8034603F01003002BF6D180BD00BF80B483B000AF0346FB80044AFB8813800C37BD465DF8047B704700BF6F
:404C00008C68004080B483B000AF0346FB80044AFB8813800C37BD465DF8047B704700BF4C68004080B483B000AF0346FB71044AFB7913700C37BD465DF8047B704700BFDE
:404C40008464004080B400AF034B1B78DBB21846BD465DF8047B70476464004080B400AF034B1B889BB21846BD465DF8047B7047AC68004080B400AF054B1B78DBB203F020
:404C800040039B09DBB21846BD465DF8047B70478F45004080B483B000AF0346FB71044AFB7913700C37BD465DF8047B704700BF7665004080B400AF034B1B78DBB2184616
:404CC000BD465DF8047B70477665004080B400AF034B1B78DBB21846BD465DF8047B70476665004080B500AF012000F057F8144A134B1B78DBB223F02003DBB21370104A03
:404D00000F4B1B78DBB223F00403DBB213700C4A0B4B1B78DBB243F00803DBB21370094A084B1B78DBB223F01803DBB21370054A044B1B78DBB243F01003DBB2137080BD60
:404D400041580040CF5A004080B400AF094A094B1B78DBB243F00203DBB21370064A064B1B78DBB243F00203DBB21370BD465DF8047B7047A7430040B743004080B500AF20
:404D8000054B1B78002B04D1FFF7ACFF024B01221A70FFF7D9FF80BDE281FF1F80B483B000AF0346FB71164B154A1278D2B2D2B222F00302D1B2FA7902F00302D2B20A43F7
:404DC000D2B2D2B21A70FB79012B0AD10D4B0E4A1278D2B21A700D4B0D4A1278D2B21A7009E0084B0B4A1278D2B21A70074B0A4A1278D2B21A700C37BD465DF8047B7047DF
:404E00004158004032460040110100493346004015010049AF010049B701004980B500AF00F0C6FA022000F0FBFA042000F018FBFCF78EFF03461A46084B1A70FCF788FF32
:404E400003461A46064B1A7006484FF4807100F035F80548322100F069F880BDE681FF1FE781FF1FF4760000F477000080B500AF00F0BCFA074B1B7818460121FCF71AFE07
:404E8000054B1B7818460121FCF714FE002000F007FB80BDE481FF1FE581FF1F80B500AF054B1B78002B04D1FFF7B8FF024B01221A70FFF7DBFF80BDE381FF1F80B582B0D0
:404EC00000AF78600B467B807B681B0C9BB2012001211A464FF4804300F002FA03461A46104B1A70104B19780F4B1B787A88084611461A460123FCF759FF0B4B1A787B684B
:404F00009BB21046194645F68132FCF78FFF054B1A78054B1B7810461946FCF77FFE0837BD4680BDE481FF1FE681FF1F80B582B000AF78600B467B807B681B0C9BB20120DD
:404F400001211A464FF4804300F0FEF903461A46104B1A70104B19780F4B1B787A88084611461A460123FCF721FF0B4B1A787B689BB21046194645F68132FCF757FF054BC9
:404F80001A78054B1B7810461946FCF747FE0837BD4680BDE581FF1FE781FF1F80B500AF032000F035F880BD80B400AF0D4A0D4B1B78DBB243F06003DBB213700A4A0A4BA4
:404FC0001B78DBB243F00103DBB21370074A074B1B78DBB243F00103DBB21370BD465DF8047B704777580040A4430040B443004080B500AF054B1B78002B04D1034B01220D
:405000001A70FFF7CBFFFFF7CFFF80BDE881FF1F80B483B000AF0346FB710C4A0B4B1B78DBB223F00303DBB213700849074B1B78DAB2FB7903F00303DBB21343DBB20B70C4
:405040000C37BD465DF8047B704700BF5858004080B584B000AF03460A46FB8013467B7100F0B2F80346FB7300F0A2F80346BB81FA88BB899A4200F08780454B1B78DBB296
:4050800003F02003FB72FB7B002B20D1BB89002B02D0FB88002B1AD1BB89002B0BD13D4AFB8813803C4A3C4B1B78DBB223F04003DBB2137068E0384A374B1B78DBB243F0E7
:4050C0004003DBB21370334AFB8813805CE0FB7A002B33D0314B00221A70314B20221A70304B00221A70304A2F4B1B78DBB203F07F03DBB21370284B1B78DBB203F008032A
:40510000002B02D0FB88002B18D1284ABB891380224B07221A7000BF204B1B78DBB203F00103002BF8D11A4A194B1B78DBB223F02003DBB21370194B00221A70144B1B780D
:40514000DBB203F02003002B13D0184AFB881380124A7B79002B01D0032300E00123137000BF0E4B1B78DBB203F00103002BF8D10AE0084AFB8813800549054B1B78DAB2DB
:40518000FB7A1343DBB20B701037BD4680BD00BFA24300409440004096400040014000401040004014400040084000400240004080B400AF034B1B889BB21846BD465DF801
:4051C000047B70479440004080B400AF054B1B78DBB203F00703DBB21846BD465DF8047B704700BF9640004080B500AF4FF4344000F066F84FF6FF7000F052F84FF6FF703C
:4052000000F024F800F002F880BD00BF80B400AF054A054B1B78DBB243F00103DBB21370BD465DF8047B70477664004080B500AF054B1B78002B04D1FFF7D6FF024B0122E9
:405240001A70FFF7E3FF80BDE981FF1F80B584B000AF0346FB8000F05BFC0346FB730D4A0C4B1B78DBB243F00303DBB213700A4A094B1B78DBB243F00303DBB21370FB7B8F
:40528000184600F049FC054AFB8813801037BD4680BD00BF94640040956400404464004080B483B000AF0346FB80044AFB8813800C37BD465DF8047B704700BF04640040E1
:4052C00080B483B000AF0346FB80044AFB8813800C37BD465DF8047B704700BF2464004090B585B002AF0446084611461A462346FB710346BB710B46BB8013467B80114B18
:4053000002221A700F4B1878F979BA7900230093002301930023FCF7CBFC0A4B1978BA887B88084611461A46FCF73AFC054B1B7818460221FCF704FC024B1B7818460C37B5
:40534000BD4690BD4781FF1F90B585B002AF0446084611461A462346FB710346BB710B46BB8013467B80114B03221A700F4B1878F979BA7900230093002301930023FCF736
:4053800097FC0A4B1978BA887B88084611461A46FCF706FC054B1B7818460221FCF7D0FB024B1B7818460C37BD4690BD4881FF1F80B500AF0A4B00221A700A4B00221A7075
:4053C000094A094B1B78DBB243F00803DBB21370002000F045F8022000F022F880BD00BF24580040255800408F5A004080B400AF094A094B1B78DBB243F00203DBB213708F
:40540000064A064B1B78DBB243F00203DBB21370BD465DF8047B7047A8430040B843004080B483B000AF0346FB710C4A0B4B1B78DBB223F00203DBB213700849074B1B787A
:40544000DAB2FB7903F00203DBB21343DBB20B700C37BD465DF8047B704700BF2458004080B582B000AF0346FB710C4A0B4B1B78DBB223F00C03DBB213700849074B1B78FE
:40548000DAB2FB7903F00C03DBB21343DBB20B7000F016F80837BD4680BD00BF2458004080B483B000AF0346FB71044AFB7913700C37BD465DF8047B704700BF815B00404B
:4054C00080B483B000AF0B4B1B78DBB203F00C039B08DBB20633FB71074AFB7903F1924303F598731B78DBB213700C37BD465DF8047B7047245800400946004080B483B092
:4055000000AF0346FB71044AFB7913700C37BD465DF8047B704700BF7564004080B400AF034B1B78DBB21846BD465DF8047B70477564004080B483B000AF0346FB71044AAA
:40554000FB7913700C37BD465DF8047B704700BF7264004080B400AF034B1B78DBB21846BD465DF8047B70476664004080B584B000AF03460A46FB8013467B7100F0B2F83C
:405580000346FB7300F0A2F80346BB81FA88BB899A4200F08780454B1B78DBB203F00403FB72FB7B002B20D1BB89002B02D0FB88002B1AD1BB89002B0BD13D4AFB88138021
:4055C0003C4A3C4B1B78DBB223F04003DBB2137068E0384A374B1B78DBB243F04003DBB21370334AFB8813805CE0FB7A002B33D0314B00221A70314B04221A70304B0022C3
:405600001A70304A2F4B1B78DBB203F07F03DBB21370284B1B78DBB203F00803002B02D0FB88002B18D1284ABB891380224B07221A7000BF204B1B78DBB203F00103002B4D
:40564000F8D11A4A194B1B78DBB223F00403DBB21370194B00221A70144B1B78DBB203F00403002B13D0184AFB881380124A7B79002B01D0032300E00123137000BF0E4B2F
:405680001B78DBB203F00103002BF8D10AE0084AFB8813800549054B1B78DAB2FB7A1343DBB20B701037BD4680BD00BFA2430040884000408A40004001400040104000406F
:4056C00014400040084000400240004080B400AF034B1B889BB21846BD465DF8047B70478840004080B400AF054B1B78DBB203F00703DBB21846BD465DF8047B704700BF6F
:405700008A40004080B500AF054B1B78002B04D100F008F8024B01221A7000F043F880BDEA81FF1F80B582B000AF1C4B1B78DBB223F03F03FB71194AFB7943F01903DBB2AC
:405740001370174A164B1B78DBB243F00103DBB21370F92000F036F8F92000F051F8002000F05EF8002000F06BF8002000F078F800F0CEF90346BB71094A094B1B78DBB2A8
:4057800043F01003DBB21370BB79184600F0C4F900F028F80837BD4680BD00BF736400409364004080B400AF054A054B1B78DBB263F07F03DBB21370BD465DF8047B7047A3
:4057C0007364004080B483B000AF0346FB71044AFB7913700C37BD465DF8047B704700BF0364004080B500AF01E000F055F800F047F8034603F01003002BF6D180BD00BFDD
:4058000080B483B000AF0346FB71044AFB7913700C37BD465DF8047B704700BF4364004080B483B000AF0346FB71044AFB7913700C37BD465DF8047B704700BF236400407A
:4058400080B483B000AF0346FB71044AFB7913700C37BD465DF8047B704700BF3364004080B483B000AF0346FB71044AFB7913700C37BD465DF8047B704700BF83640040EA
:4058800080B400AF034B1B78DBB21846BD465DF8047B70476364004080B400AF034B1B78DBB21846BD465DF8047B70475364004080B584B000AF03460A46FB8013467B71FF
:4058C00000F0B2F80346FB7300F0A2F80346BB81FA88BB899A4200F08780454B1B78DBB203F01003FB72FB7B002B20D1BB89002B02D0FB88002B1AD1BB89002B0BD13D4A4E
:40590000FB8813803C4A3C4B1B78DBB223F04003DBB2137068E0384A374B1B78DBB243F04003DBB21370334AFB8813805CE0FB7A002B33D0314B00221A70314B10221A70FA
:40594000304B00221A70304A2F4B1B78DBB203F07F03DBB21370284B1B78DBB203F00803002B02D0FB88002B18D1284ABB891380224B07221A7000BF204B1B78DBB203F09C
:405980000103002BF8D11A4A194B1B78DBB223F01003DBB21370194B00221A70144B1B78DBB203F01003002B13D0184AFB881380124A7B79002B01D0032300E001231370BD
:4059C00000BF0E4B1B78DBB203F00103002BF8D10AE0084AFB8813800549054B1B78DAB2FB7A1343DBB20B701037BD4680BD00BFA243004090400040924000400140004094
:405A00001040004014400040084000400240004080B400AF034B1B889BB21846BD465DF8047B70479040004080B400AF054B1B78DBB203F00703DBB21846BD465DF8047B09
:405A4000704700BF9240004080B500AF032000F035F880BD80B400AF0D4A0D4B1B78DBB243F06003DBB213700A4A0A4B1B78DBB243F00203DBB21370074A074B1B78DBB211
:405A800043F00203DBB21370BD465DF8047B704777580040A4430040B443004080B500AF054B1B78002B04D1034B01221A70FFF7CBFFFFF7CFFF80BDEB81FF1F80B483B02F
:405AC00000AF0346FB710C4A0B4B1B78DBB223F00303DBB213700849074B1B78DAB2FB7903F00303DBB21343DBB20B700C37BD465DF8047B704700BF5A58004000000000B1
:405B00000230800803D000BF01380046FCD17047EFF3108072B6704780F31088704700BF80B582B000AF1A4B1B78DBB203F00303012B02D0022B04D012E0154B1B79BB719F
:405B400011E0134B1B79DBB203F07F02114913465B0013449B000B4408339B78BB7102E00023BB7100BF0C4B1A68BB7913441B78022B04D1FCF770FF0346FB7102E0002373
:405B8000FB7100BFFB7918460837BD4680BD00BF0060004030A5FF1F24A5FF1F81F0004102E000BF83F0004330B54FEA41044FEA430594EA050F08BF90EA020F1FBF54EA43
:405BC000000C55EA020C7FEA645C7FEA655C00F0E2804FEA5454D4EB5555B8BF6D420CDD2C4480EA020281EA030382EA000083EA010180EA020281EA0303362D88BF30BDAE
:405C000011F0004F4FEA01314FF4801C4CEA113102D0404261EB410113F0004F4FEA03334CEA133302D0524263EB430394EA050F00F0A780A4F10104D5F1200E0DDB02FA1E
:405C40000EFC22FA05F2801841F1000103FA0EF2801843FA05F359410EE0A5F120050EF1200E012A03FA0EFC28BF4CF0020C43FA05F3C01851EBE37101F0004507D54FF0B1
:405C8000000EDCF1000C7EEB00006EEB0101B1F5801F1BD3B1F5001F0CD349085FEA30004FEA3C0C04F101044FEA445212F5800F80F09A80BCF1004F08BF5FEA500C50F185
:405CC000000041EB045141EA050130BD5FEA4C0C404141EB010111F4801FA4F10104E9D191F0000F04BF01460020B1FA81F308BF2033A3F10B03B3F120020CDA0C3208DD59
:405D000002F1140CC2F10C0201FA0CF021FA02F10CE002F11402D8BFC2F1200C01FA02F120FA0CFCDCBF41EA0C019040E41AA2BF01EB0451294330BD6FEA04041F3C1CDAC1
:405D40000C340EDC04F11404C4F1200220FA04F001FA02F340EA030021FA04F345EA030130BDC4F10C04C4F1200220FA02F001FA04F340EA0300294630BD21FA04F0294617
:405D800030BD94F0000F83F4801306BF81F480110134013D4EE77FEA645C18BF7FEA655C29D094EA050F08BF90EA020F05D054EA000C04BF1946104630BD91EA030F1EBFF1
:405DC0000021002030BD5FEA545C05D14000494128BF41F0004130BD14F580043CBF01F5801130BD01F0004545F0FE4141F470014FF0000030BD7FEA645C1ABF1946104667
:405E00007FEA655C1CBF0B46024650EA013406BF52EA033591EA030F41F4002130BD00BF90F0000F04BF0021704730B54FF4806404F132044FF000054FF0000150E700BFB2
:405E400090F0000F04BF0021704730B54FF4806404F1320410F0004548BF40424FF000013EE700BF42004FEAE2014FEA31014FEA02701FBF12F07F4393F07F4F81F0605146
:405E8000704792F0000F14BF93F07F4F704730B54FF4607401F0004521F0004120E700BF50EA010208BF704730B54FF000050AE050EA010208BF704730B511F0004502D5EA
:405EC000404261EB41014FF4806404F132045FEA915C3FF4DCAE4FF003025FEADC0C18BF03325FEADC0C18BF033202EBDC02C2F1200300FA03FC20FA02F001FA03FE40EAC3
:405F00000E0021FA02F11444C1E600BF70B54FF0FF0C4CF4E06C1CEA11541DBF1CEA135594EA0C0F95EA0C0F00F0DEF82C4481EA030621EA4C5123EA4C5350EA013518BF5F
:405F400052EA033541F4801143F4801338D0A0FB02CE4FF00005E1FB02E506F00042E0FB03E54FF00006E1FB03569CF0000F18BF4EF0010EA4F1FF04B6F5007F64F54074A0
:405F800004D25FEA4E0E6D4146EB060642EAC62141EA55514FEAC52040EA5E504FEACE2EB4F1FD0C88BFBCF5E06F1ED8BEF1004F08BF5FEA500E50F1000041EB045170BD26
:405FC00006F0004646EA010140EA020081EA0301B4EB5C04C2BFD4EB0C0541EA045170BD41F480114FF0000E013C00F3AB8014F1360FDEBF002001F0004170BDC4F100040E
:40600000203C35DA0C341BDC04F11404C4F1200500FA05F320FA04F001FA05F240EA020001F0004221F0004110EBD37021FA04F642EB06015EEA430E08BF20EAD37070BDD3
:40604000C4F10C04C4F1200500FA04F320FA05F001FA04F240EA020001F0004110EBD37041F100015EEA430E08BF20EAD37070BDC4F1200500FA05F24EEA020E20FA04F3C3
:4060800001FA05F243EA020321FA04F001F0004121FA04F220EA020000EBD3705EEA430E08BF20EAD37070BD94F0000F0FD101F00046400041EB010111F4801F08BF013C96
:4060C000F7D041EA060195F0000F18BF704703F00046520043EB030313F4801F08BF013DF7D043EA0603704794EA0C0F0CEA135518BF95EA0C0F0CD050EA410618BF52EA8F
:406100004306D1D181EA030101F000414FF0000070BD50EA410606BF1046194652EA430619D094EA0C0F02D150EA013613D195EA0C0F05D152EA03361CBF104619460AD1ED
:4061400081EA030101F0004141F0FE4141F470014FF0000070BD41F0FE4141F4780170BD70B54FF0FF0C4CF4E06C1CEA11541DBF1CEA135594EA0C0F95EA0C0F00F0A7F83F
:40618000A4EB050481EA030E52EA03354FEA013100F088804FEA03334FF0805545EA131343EA12634FEA022245EA111545EA10654FEA00260EF000419D4208BF964244F1D3
:4061C000FD0404F5407402D25B084FEA3202B61A65EB03055B084FEA32024FF480104FF4002CB6EB020E75EB030E22BFB61A754640EA0C005B084FEA3202B6EB020E75EB6E
:40620000030E22BFB61A754640EA5C005B084FEA3202B6EB020E75EB030E22BFB61A754640EA9C005B084FEA3202B6EB020E75EB030E22BFB61A754640EADC0055EA060E80
:4062400018D04FEA051545EA16754FEA06164FEAC30343EA52734FEAC2025FEA1C1CC0D111F4801F0BD141EA00014FF000004FF0004CB6E711F4801F04BF01430020B4F151
:40628000FD0C88BFBCF5E06F3FF6AFAEB5EB030C04BFB6EB020C5FEA500C50F1000041EB045170BD0EF0004E4EEA113114EB5C04C2BFD4EB0C0541EA045170BD41F480115E
:4062C0004FF0000E013C90E645EA060E8DE60CEA135594EA0C0F08BF95EA0C0F3FF43BAF94EA0C0F0AD150EA01347FF434AF95EA0C0F7FF425AF104619462CE795EA0C0FF7
:4063000006D152EA03353FF4FDAE1046194622E750EA410618BF52EA43067FF4C5AE50EA41047FF40DAF52EA43057FF4EBAE12E74A0011D212F5001211D20DD56FF4787323
:40634000B3EB62520ED44FEAC12343F0004343EA505323FA02F070474FF00000704750EA013002D14FF0FF3070474FF0000070474FEA4102B2F1E04324BFB3F5001CDCF1BB
:40638000FE5C0DD901F0004C4FEAC0024CEA5070B2F1004F40EB830008BF20F00100704711F0804F21D113F13872BCBF01F00040704741F480114FEA5252C2F11802C2F14A
:4063C000200C10FA0CF320FA02F018BF40F001004FEAC1234FEAD32303FA0CFC40EA0C0023FA02F34FEA4303CCE77FEA625307D150EA01331EBF4FF0FE4040F440007047A0
:4064000001F0004040F0FE4040F40000704700BF80F0004002E000BF81F0004142001FBF5FEA410392EA030F7FEA226C7FEA236C6AD04FEA1262D2EB1363C1BFD2184140E1
:4064400048404140B8BF5B42192B88BF704710F0004F40F4000020F07F4018BF404211F0004F41F4000121F07F4118BF494292EA030F3FD0A2F1010241FA03FC10EB0C00E5
:40648000C3F1200301FA03F100F0004302D5494260EB4000B0F5000F13D3B0F1807F06D340084FEA310102F10102FE2A51D2B1F1004F40EBC25008BF20F0010040EA0300BC
:4064C0007047490040EB000010F4000FA2F10102EDD1B0FA80FCACF1080CB2EB0C0200FA0CF0AABF00EBC25052421843BCBFD0401843704792F0000F81F4000106BF80F460
:4065000000000132013BB5E74FEA41037FEA226C18BF7FEA236C21D092EA030F04D092F0000F08BF0846704790EA010F1CBF0020704712F07F4F04D1400028BF40F00040E5
:40654000704712F100723CBF00F50000704700F0004343F0FE4040F4000070477FEA226216BF08467FEA23630146420206BF5FEA412390EA010F40F4800070474FF0000386
:4065800004E000BF10F0004348BF40425FEA000C08BF704743F0964301464FF000001CE050EA010208BF70474FF000030AE000BF50EA010208BF704711F0004302D540420D
:4065C00061EB41015FEA010C02BF84460146002043F0B64308BFA3F18053A3F50003BCFA8CF2083AA3EBC25310DB01FA02FC634400FA02FCC2F12002BCF1004F20FA02F255
:4066000043EB020008BF20F00100704702F1200201FA02FCC2F1200250EA4C0021FA02F243EB020008BF20EADC7070474FF0FF0C1CEAD0521EBF1CEAD15392EA0C0F93EA92
:406640000C0F6FD01A4480EA010C400218BF5FEA41211ED04FF0006343EA501043EA5111A0FB01310CF00040B1F5000F3EBF490041EAD3715B0040EA010062F17F02FD2A87
:406680001DD8B3F1004F40EBC25008BF20F00100704790F0000F0CF0004C08BF49024CEA502040EA51207F3AC2BFD2F1FF0340EAC250704740F400004FF00003013A5DDC20
:4066C00012F1190FDCBF00F000407047C2F10002410021FA02F1C2F1200200FA02FC5FEA310040F1000053EA4C0308BF20EADC70704792F0000F00F0004C02BF400010F43F
:40670000000F013AF9D040EA0C0093F0000F01F0004C02BF490011F4000F013BF9D041EA0C018FE70CEAD15392EA0C0F18BF93EA0C0F0AD030F0004C18BF31F0004CD8D11D
:4067400080EA010000F00040704790F0000F17BF90F0004F084691F0000F91F0004F14D092EA0C0F01D142020FD193EA0C0F03D14B0218BF084608D180EA010000F0004022
:4067800040F0FE4040F40000704740F0FE4040F4400070474FF0FF0C1CEAD0521EBF1CEAD15392EA0C0F93EA0C0F69D0A2EB030280EA010C49024FEA402037D04FF0805300
:4067C00043EA111143EA10130CF000408B4238BF5B0042F17D024FF4000C8B4224BF5B1A40EA0C00B3EB510F24BFA3EB510340EA5C00B3EB910F24BFA3EB910340EA9C00F1
:40680000B3EBD10F24BFA3EBD10340EADC001B0118BF5FEA1C1CE0D1FD2A3FF650AF8B4240EBC25008BF20F0010070470CF0004C4CEA50207F32C2BFD2F1FF0340EAC25055
:40684000704740F400004FF00003013A37E792F0000F00F0004C02BF400010F4000F013AF9D040EA0C0093F0000F01F0004C02BF490011F4000F013BF9D041EA0C0195E7D1
:406880000CEAD15392EA0C0F08D142027FF47DAF93EA0C0F7FF470AF084676E793EA0C0F04D14B023FF44CAF08466EE730F0004C18BF31F0004CCAD130F000427FF45CAFE0
:4068C00031F000437FF43CAF5FE700BF4FF0FF3C06E000BF4FF0010C02E000BF4FF0010C4DF804CD4FEA40024FEA41037FEA226C18BF7FEA236C11D001B052EA530C18BFA1
:4069000090EA010F58BFB2EB030088BFC81738BF6FEAE17018BF40F0010070477FEA226C02D15FEA402C05D17FEA236CE4D15FEA412CE1D05DF8040B704700BF8446084635
:406940006146FFE70FB5FFF7C9FF002848BF10F1000F0FBD4DF808EDFFF7F4FF0CBF012000205DF808FB00BF4DF808EDFFF7EAFF34BF012000205DF808FB00BF4DF808ED19
:40698000FFF7E0FF94BF012000205DF808FB00BF4DF808EDFFF7D2FF94BF012000205DF808FB00BF4DF808EDFFF7C8FF34BF012000205DF808FB00BF42000ED2B2F1FE4F57
:4069C0000BD34FF09E03B3EB126209D44FEA002343F0004323FA02F070474FF00000704712F1610F01D1420202D14FF0FF3070474FF00000704700BF014B1868704700BFE4
:406A0000AC81FF1F0E4B70B51E460E4C0025E41AA410A54204D056F8253098470135F8E701F098F8084B094C1E46E41AA4100025A54204D056F8253098470135F8E770BDC3
:406A4000607B0000607B0000607B0000687B000010B5431E0A44914204D011F8014B03F8014FF8E710BD03460244934202D003F8011BFAE7704700000EB430B59CB01FAC98
:406A80004FF4017254F8045BADF814200290069000F01EF80B4B03900B9300230F9314934FF6FF73ADF81630074B079002A918682A462346019400F06DF91CB0BDE8304020
:406AC00003B07047CD6A0000AC81FF1F00207047034613F8012B002AFBD1181A01387047174B2DE9F0411D680646AC6D0F46FCB9502000F053F8A8658460AB6D04604460E2
:406B00001C61DC60AB6D9C615C61AB6DDC629C62AB6D5C631C63AB6DDC639C63AB6D5C641C64AB6DDC649C64AB6D1C77AB6D5C6230463946AA6D0123BDE8F04100F002B8E9
:406B4000AC81FF1FF0B548B9106838B9F0BD17F8016B5EB1B542FAD12BB1204604460F4614F8015BF3E714600370F0BD4DB915602846F0BD17F8016BAE4207D0002EF9D13B
:406B80001C4623460F4613F8015BF3E715B10021217000E02B461360F0BD0000024B0146186800F047B800BFAC81FF1F30B500293CD051F8042C0B1F1D49002AB8BF9B1807
:406BC0000A680C4612B95A600B6030BD93420DD219685818904201BF5A5852181A60426823605A6030BD994203D80A4651680029F9D1146815199D420AD11B682344D0186B
:406C00008842136012D10868034413604B680CE002D90C23036030BD1C681819884201BF08684968001918605960536030BD00BFF081FF1F70B5CC1C24F0030408340C2CDD
:406C400038BF0C24002C064603DA0C233360002070BD8C42F9D3204A136810461946A1B10A68121B0ED40B2A03D90A608B188C501FE08B420BBF5A684A6802605A6018BF8B
:406C80000B4616E00B464968E9E7144D2B681BB9304600F01DFB28603046214600F018FB421C0346D1D0C51C25F0030585420AD11C6003F10B001A1D20F00700821A0AD0E6
:406CC0005142995070BD3046E91A00F001FB0130BBD02B46ECE770BDF081FF1FEC81FF1F38B54B1C144602D14FF0FF3038BD9389CDB223F020039381536B526883B1A36BBC
:406D00009A4207DA23685A1E226003F8015C636801331FE0214600F01FFC0028F2D0E3E72169236851B18B4208D913F8010CA84204D1013B01322360626038BDE36304F115
:406D4000440363630323A3632346226403F8465F236001236360284638BD10B50C46496B69B104F14403994201D0FFF71FFF236C00206063636013B1E36B236010BD23697A
:406D80004FF0FF30236000236360A38943F02003A38110BD2DE9F04707460C469046ADF5247D01930023469347939C4B0DF10C0AA2939B4BCDF820A1A39398F80050002D3B
:406DC00000F0248197490B6889462B445B7803F0080303F0FF02EBB16368002B10DD2368D9F800101A780A44527815070ED5479A01330132479262682360013A6260EBE7D7
:406E0000A39B3846214698470028E8D008F10106B046D2E7252D08F101064FD14592439298F801302A2B03D11023439308F1020631783546A1F13003092B06F1010606D8B6
:406E4000459B0A2202FB0313303B4593F0E7DFF8DC810322404600F0B8FB40B135460123C8EB000003FA00F2439B134343936E1C2D78672D0FD8652D78D25B2D54D005D80C
:406E8000002D00F0C580252D18D071E0632D57D0642D3FD06CE0702D32D007D86E2D55D03AD8692D64D1002344933BE0752D31D0782D29D0732D5BD102233FE06368002BCB
:406EC0000DDD23681A78AA4240F0A080013362682360479B013A01336260479398E7A39B3846214698470028EBD04698002800F08F80A38913F0400F18BF4FF0FF3089E04C
:406F0000439B43F020034393439B43F400734393102302E00A2300E008236E2D449301DD04230BE0032309E03146504600F0E0F90646439B43F040034393012349931BE0E4
:406F4000439B43F0400343930023F7E7439AD0063FF55EAF12F0010F019A479B02F104010191126814BF1380136051E70523E5E7032349930A2344936368002B03DD439BA0
:406F8000590611D518E0A39B3846214698470028F5D0AAE7479A013247926268013A002A626013DD013323602368D9F800101A780A4452781207EDD4499B022B0DDC384627
:406FC00043A9224601AB00F033F819E0A39B3846214698470028E7D087E7042B06DC384643A9224601AB00F081F809E00E4B002B3FF40EAF384643A9224601ABAFF3008039
:40700000012803D002287FF403AF6EE7469801E04FF0FF300DF5247DBDE8F087E16C00005B6D0000B081FF1F00000000C67900002DE9F04115468A6880460C4632B98A6997
:40704000002A0CBF01224FF0FF328A6022680026D1065FBF1A68111D19601768A069F8B923680136DA065EBF2B681B783B702A686B6802F101022A60A26803F1FF3302F1FF
:40708000FF326B6058BF0137A260EAB1002BE5DCD4F880314046294698470028DED013E0012807D12B6862691B78D35C002BD7D1C6B109E0022807D12B680B4A1B78126897
:4070C00013445B781B07CBD5236813F0100305D1E2680132E260A26902B13B70236900201E442661BDE8F081B081FF1F2DE9F04F0C469A46724B87B08346164693E80700E9
:4071000003AB83E807006F4BA1696F4A04F11C09032918BF1A46A36800925A1EB2F5AE7F82BF6FF4AE7503EB050840F25D134F4688BFA360236898BF4FF0000843F45063F6
:4071400023600023326803A951F8230011780222019300F03AFA019B002835D0012B0BD162682AB908226260226842F400722260226822F4A0620BE0022B0AD1226802F41F
:40718000C061B1F5007F1FD11021616042F480722260A268511EA160B2B132687D1C511C316012783A707268013A002A72600ADCD4F880215846314601939047002841D19D
:4071C0002F46019B00E02F460133032BBAD163680BB90A23636063683C496069C91A00F087F83D460027A3686BB3316860690A78805C40B3302A22680AD1100508D50137E3
:40720000B8F1000F0BD0013308F1FF38A36006E022F4106222600B78013505F8013C7368013B002B736003DD33680133336005E0D4F8803158463146984720B9A368013BA4
